{"abi":[{"type":"constructor","inputs":[],"stateMutability":"nonpayable"},{"type":"function","name":"addSupportedToken","inputs":[{"name":"token","type":"address","internalType":"address"},{"name":"symbol","type":"string","internalType":"string"}],"outputs":[],"stateMutability":"nonpayable"},{"type":"function","name":"convertFromUSD","inputs":[{"name":"token","type":"address","internalType":"address"},{"name":"usdAmount","type":"uint256","internalType":"uint256"}],"outputs":[{"name":"","type":"uint256","internalType":"uint256"}],"stateMutability":"view"},{"type":"function","name":"convertToUSD","inputs":[{"name":"token","type":"address","internalType":"address"},{"name":"amount","type":"uint256","internalType":"uint256"}],"outputs":[{"name":"","type":"uint256","internalType":"uint256"}],"stateMutability":"view"},{"type":"function","name":"getSupportedTokens","inputs":[],"outputs":[{"name":"","type":"address[]","internalType":"address[]"},{"name":"","type":"string[]","internalType":"string[]"}],"stateMutability":"view"},{"type":"function","name":"owner","inputs":[],"outputs":[{"name":"","type":"address","internalType":"address"}],"stateMutability":"view"},{"type":"function","name":"removeSupportedToken","inputs":[{"name":"token","type":"address","internalType":"address"}],"outputs":[],"stateMutability":"nonpayable"},{"type":"function","name":"renounceOwnership","inputs":[],"outputs":[],"stateMutability":"nonpayable"},{"type":"function","name":"supportedTokens","inputs":[{"name":"","type":"address","internalType":"address"}],"outputs":[{"name":"","type":"bool","internalType":"bool"}],"stateMutability":"view"},{"type":"function","name":"tokenList","inputs":[{"name":"","type":"uint256","internalType":"uint256"}],"outputs":[{"name":"","type":"address","internalType":"address"}],"stateMutability":"view"},{"type":"function","name":"tokenPrices","inputs":[{"name":"","type":"address","internalType":"address"}],"outputs":[{"name":"","type":"uint256","internalType":"uint256"}],"stateMutability":"view"},{"type":"function","name":"tokenSymbols","inputs":[{"name":"","type":"address","internalType":"address"}],"outputs":[{"name":"","type":"string","internalType":"string"}],"stateMutability":"view"},{"type":"function","name":"transferOwnership","inputs":[{"name":"newOwner","type":"address","internalType":"address"}],"outputs":[],"stateMutability":"nonpayable"},{"type":"function","name":"updateTokenPrice","inputs":[{"name":"token","type":"address","internalType":"address"},{"name":"price","type":"uint256","internalType":"uint256"}],"outputs":[],"stateMutability":"nonpayable"},{"type":"event","name":"OwnershipTransferred","inputs":[{"name":"previousOwner","type":"address","indexed":true,"internalType":"address"},{"name":"newOwner","type":"address","indexed":true,"internalType":"address"}],"anonymous":false},{"type":"event","name":"PriceUpdated","inputs":[{"name":"token","type":"address","indexed":true,"internalType":"address"},{"name":"price","type":"uint256","indexed":false,"internalType":"uint256"}],"anonymous":false},{"type":"event","name":"TokenAdded","inputs":[{"name":"token","type":"address","indexed":true,"internalType":"address"},{"name":"symbol","type":"string","indexed":false,"internalType":"string"}],"anonymous":false},{"type":"event","name":"TokenRemoved","inputs":[{"name":"token","type":"address","indexed":true,"internalType":"address"}],"anonymous":false}],"bytecode":{"object":"0x608060405234801561000f575f5ffd5b5060015f5561001d336100dd565b7fac33ff75c19e70fe83507db0d683fd3465c996598dc972688b7ace676c89077b805460ff191660011790556040805180820190915260038082526208aa8960eb1b6020838101919091525f8052527f3617319a054d772f909f7c479a2cebe5066e836a939412e32403c99029b92eff9061009890826101c6565b50600480546001810182555f919091527f8a35acfbc15ff81a39ae7d344fd709f28e8600b4aa8c65c6b64bfe7fe36bd19b0180546001600160a01b0319169055610280565b600180546001600160a01b038381166001600160a01b0319831681179093556040519116919082907f8be0079c531659141344cd1fd0a4f28419497f9722a3daafe3b4186f6b6457e0905f90a35050565b634e487b7160e01b5f52604160045260245ffd5b600181811c9082168061015657607f821691505b60208210810361017457634e487b7160e01b5f52602260045260245ffd5b50919050565b601f8211156101c157805f5260205f20601f840160051c8101602085101561019f5750805b601f840160051c820191505b818110156101be575f81556001016101ab565b50505b505050565b81516001600160401b038111156101df576101df61012e565b6101f3816101ed8454610142565b8461017a565b6020601f821160018114610225575f831561020e5750848201515b5f19600385901b1c1916600184901b1784556101be565b5f84815260208120601f198516915b828110156102545787850151825560209485019460019092019101610234565b508482101561027157868401515f19600387901b60f8161c191681555b50505050600190811b01905550565b610fbc8061028d5f395ff3fe608060405234801561000f575f5ffd5b50600436106100cb575f3560e01c80638da5cb5b11610088578063d4ee651b11610063578063d4ee651b146101c4578063f08a25ed146101d7578063f2fde38b146101ea578063fb0b2b36146101fd575f5ffd5b80638da5cb5b146101765780639ead72221461019b578063d3c7c2c7146101ae575f5ffd5b8063204120bc146100cf5780633a3d1f981461010157806368c4ac2614610114578063715018a614610146578063720138e8146101505780637631919014610163575b5f5ffd5b6100ee6100dd366004610b75565b60056020525f908152604090205481565b6040519081526020015b60405180910390f35b6100ee61010f366004610b95565b61021d565b610136610122366004610b75565b60026020525f908152604090205460ff1681565b60405190151581526020016100f8565b61014e6102d9565b005b61014e61015e366004610bd1565b6102ec565b61014e610171366004610b75565b61046b565b6001546001600160a01b03165b6040516001600160a01b0390911681526020016100f8565b6101836101a9366004610c95565b610653565b6101b661067b565b6040516100f8929190610cda565b61014e6101d2366004610b95565b61082b565b6100ee6101e5366004610b95565b6108b6565b61014e6101f8366004610b75565b610955565b61021061020b366004610b75565b6109ce565b6040516100f89190610d83565b6001600160a01b0382165f9081526002602052604081205460ff1661025d5760405162461bcd60e51b815260040161025490610d95565b60405180910390fd5b6001600160a01b0383165f90815260056020526040902054806102b25760405162461bcd60e51b815260206004820152600d60248201526c141c9a58d9481b9bdd081cd95d609a1b6044820152606401610254565b806102c584670de0b6b3a7640000610dd6565b6102cf9190610ded565b9150505b92915050565b6102e1610a65565b6102ea5f610abf565b565b6102f4610a65565b6001600160a01b0382166103435760405162461bcd60e51b81526020600482015260166024820152750aae6ca40c2c8c8e4cae6e650605240ccdee4408aa8960531b6044820152606401610254565b6001600160a01b0382165f9081526002602052604090205460ff16156103ab5760405162461bcd60e51b815260206004820152601760248201527f546f6b656e20616c726561647920737570706f727465640000000000000000006044820152606401610254565b6001600160a01b0382165f908152600260209081526040808320805460ff19166001179055600390915290206103e18282610e90565b50600480546001810182555f919091527f8a35acfbc15ff81a39ae7d344fd709f28e8600b4aa8c65c6b64bfe7fe36bd19b0180546001600160a01b0319166001600160a01b0384169081179091556040517f7afee0f1b802cc0f66c67890e26b4566251859cf2cd8de79b86aed7251d9756a9061045f908490610d83565b60405180910390a25050565b610473610a65565b6001600160a01b0381166104bd5760405162461bcd60e51b8152602060048201526011602482015270086c2dcdcdee840e4cadadeecca408aa89607b1b6044820152606401610254565b6001600160a01b0381165f9081526002602052604090205460ff166104f45760405162461bcd60e51b815260040161025490610d95565b6001600160a01b0381165f908152600260209081526040808320805460ff191690556003909152812061052691610b10565b5f5b60045481101561061c57816001600160a01b03166004828154811061054f5761054f610f4b565b5f918252602090912001546001600160a01b031603610614576004805461057890600190610f5f565b8154811061058857610588610f4b565b5f91825260209091200154600480546001600160a01b0390921691839081106105b3576105b3610f4b565b905f5260205f20015f6101000a8154816001600160a01b0302191690836001600160a01b0316021790555060048054806105ef576105ef610f72565b5f8281526020902081015f1990810180546001600160a01b031916905501905561061c565b600101610528565b506040516001600160a01b038216907f4c910b69fe65a61f7531b9c5042b2329ca7179c77290aa7e2eb3afa3c8511fd3905f90a250565b60048181548110610662575f80fd5b5f918252602090912001546001600160a01b0316905081565b6060805f60048054905067ffffffffffffffff81111561069d5761069d610bbd565b6040519080825280602002602001820160405280156106d057816020015b60608152602001906001900390816106bb5790505b5090505f5b6004548110156107c45760035f600483815481106106f5576106f5610f4b565b5f9182526020808320909101546001600160a01b031683528201929092526040019020805461072390610e0c565b80601f016020809104026020016040519081016040528092919081815260200182805461074f90610e0c565b801561079a5780601f106107715761010080835404028352916020019161079a565b820191905f5260205f20905b81548152906001019060200180831161077d57829003601f168201915b50505050508282815181106107b1576107b1610f4b565b60209081029190910101526001016106d5565b506004818180548060200260200160405190810160405280929190818152602001828054801561081b57602002820191905f5260205f20905b81546001600160a01b031681526001909101906020018083116107fd575b5050505050915092509250509091565b610833610a65565b6001600160a01b0382165f9081526002602052604090205460ff1661086a5760405162461bcd60e51b815260040161025490610d95565b6001600160a01b0382165f8181526005602052604090819020839055517f0d86730737b142fc160892fa8a0f2db687a92a0e294d1ad70624cf5acef03b849061045f9084815260200190565b6001600160a01b0382165f9081526002602052604081205460ff166108ed5760405162461bcd60e51b815260040161025490610d95565b6001600160a01b0383165f90815260056020526040902054806109425760405162461bcd60e51b815260206004820152600d60248201526c141c9a58d9481b9bdd081cd95d609a1b6044820152606401610254565b670de0b6b3a76400006102c58285610dd6565b61095d610a65565b6001600160a01b0381166109c25760405162461bcd60e51b815260206004820152602660248201527f4f776e61626c653a206e6577206f776e657220697320746865207a65726f206160448201526564647265737360d01b6064820152608401610254565b6109cb81610abf565b50565b60036020525f9081526040902080546109e690610e0c565b80601f0160208091040260200160405190810160405280929190818152602001828054610a1290610e0c565b8015610a5d5780601f10610a3457610100808354040283529160200191610a5d565b820191905f5260205f20905b815481529060010190602001808311610a4057829003601f168201915b505050505081565b6001546001600160a01b031633146102ea5760405162461bcd60e51b815260206004820181905260248201527f4f776e61626c653a2063616c6c6572206973206e6f7420746865206f776e65726044820152606401610254565b600180546001600160a01b038381166001600160a01b0319831681179093556040519116919082907f8be0079c531659141344cd1fd0a4f28419497f9722a3daafe3b4186f6b6457e0905f90a35050565b508054610b1c90610e0c565b5f825580601f10610b2b575050565b601f0160209004905f5260205f20908101906109cb91905b80821115610b56575f8155600101610b43565b5090565b80356001600160a01b0381168114610b70575f5ffd5b919050565b5f60208284031215610b85575f5ffd5b610b8e82610b5a565b9392505050565b5f5f60408385031215610ba6575f5ffd5b610baf83610b5a565b946020939093013593505050565b634e487b7160e01b5f52604160045260245ffd5b5f5f60408385031215610be2575f5ffd5b610beb83610b5a565b9150602083013567ffffffffffffffff811115610c06575f5ffd5b8301601f81018513610c16575f5ffd5b803567ffffffffffffffff811115610c3057610c30610bbd565b604051601f8201601f19908116603f0116810167ffffffffffffffff81118282101715610c5f57610c5f610bbd565b604052818152828201602001871015610c76575f5ffd5b816020840160208301375f602083830101528093505050509250929050565b5f60208284031215610ca5575f5ffd5b5035919050565b5f81518084528060208401602086015e5f602082860101526020601f19601f83011685010191505092915050565b604080825283519082018190525f9060208501906060840190835b81811015610d1c5783516001600160a01b0316835260209384019390920191600101610cf5565b50508381036020850152809150845180825260208201925060208160051b830101602087015f5b83811015610d7557601f19858403018652610d5f838351610cac565b6020968701969093509190910190600101610d43565b509098975050505050505050565b602081525f610b8e6020830184610cac565b602080825260139082015272151bdad95b881b9bdd081cdd5c1c1bdc9d1959606a1b604082015260600190565b634e487b7160e01b5f52601160045260245ffd5b80820281158282048414176102d3576102d3610dc2565b5f82610e0757634e487b7160e01b5f52601260045260245ffd5b500490565b600181811c90821680610e2057607f821691505b602082108103610e3e57634e487b7160e01b5f52602260045260245ffd5b50919050565b601f821115610e8b57805f5260205f20601f840160051c81016020851015610e695750805b601f840160051c820191505b81811015610e88575f8155600101610e75565b50505b505050565b815167ffffffffffffffff811115610eaa57610eaa610bbd565b610ebe81610eb88454610e0c565b84610e44565b6020601f821160018114610ef0575f8315610ed95750848201515b5f19600385901b1c1916600184901b178455610e88565b5f84815260208120601f198516915b82811015610f1f5787850151825560209485019460019092019101610eff565b5084821015610f3c57868401515f19600387901b60f8161c191681555b50505050600190811b01905550565b634e487b7160e01b5f52603260045260245ffd5b818103818111156102d3576102d3610dc2565b634e487b7160e01b5f52603160045260245ffdfea2646970667358221220ed1060ffde659e11211a2fd6b814eedd4a789c297441b11d5164972508fd5f1f64736f6c634300081e0033","linkReferences":{}},"methodIdentifiers":{"addSupportedToken(address,string)":"720138e8","convertFromUSD(address,uint256)":"3a3d1f98","convertToUSD(address,uint256)":"f08a25ed","getSupportedTokens()":"d3c7c2c7","owner()":"8da5cb5b","removeSupportedToken(address)":"76319190","renounceOwnership()":"715018a6","supportedTokens(address)":"68c4ac26","tokenList(uint256)":"9ead7222","tokenPrices(address)":"204120bc","tokenSymbols(address)":"fb0b2b36","transferOwnership(address)":"f2fde38b","updateTokenPrice(address,uint256)":"d4ee651b"},"id":3}