{"abi":[{"type":"constructor","inputs":[],"stateMutability":"nonpayable"},{"type":"function","name":"addSupportedToken","inputs":[{"name":"token","type":"address","internalType":"address"},{"name":"symbol","type":"string","internalType":"string"}],"outputs":[],"stateMutability":"nonpayable"},{"type":"function","name":"convertFromUSD","inputs":[{"name":"token","type":"address","internalType":"address"},{"name":"usdAmount","type":"uint256","internalType":"uint256"}],"outputs":[{"name":"","type":"uint256","internalType":"uint256"}],"stateMutability":"view"},{"type":"function","name":"convertToUSD","inputs":[{"name":"token","type":"address","internalType":"address"},{"name":"amount","type":"uint256","internalType":"uint256"}],"outputs":[{"name":"","type":"uint256","internalType":"uint256"}],"stateMutability":"view"},{"type":"function","name":"getSupportedTokens","inputs":[],"outputs":[{"name":"","type":"address[]","internalType":"address[]"},{"name":"","type":"string[]","internalType":"string[]"}],"stateMutability":"view"},{"type":"function","name":"owner","inputs":[],"outputs":[{"name":"","type":"address","internalType":"address"}],"stateMutability":"view"},{"type":"function","name":"removeSupportedToken","inputs":[{"name":"token","type":"address","internalType":"address"}],"outputs":[],"stateMutability":"nonpayable"},{"type":"function","name":"renounceOwnership","inputs":[],"outputs":[],"stateMutability":"nonpayable"},{"type":"function","name":"supportedTokens","inputs":[{"name":"","type":"address","internalType":"address"}],"outputs":[{"name":"","type":"bool","internalType":"bool"}],"stateMutability":"view"},{"type":"function","name":"tokenList","inputs":[{"name":"","type":"uint256","internalType":"uint256"}],"outputs":[{"name":"","type":"address","internalType":"address"}],"stateMutability":"view"},{"type":"function","name":"tokenPrices","inputs":[{"name":"","type":"address","internalType":"address"}],"outputs":[{"name":"","type":"uint256","internalType":"uint256"}],"stateMutability":"view"},{"type":"function","name":"tokenSymbols","inputs":[{"name":"","type":"address","internalType":"address"}],"outputs":[{"name":"","type":"string","internalType":"string"}],"stateMutability":"view"},{"type":"function","name":"transferOwnership","inputs":[{"name":"newOwner","type":"address","internalType":"address"}],"outputs":[],"stateMutability":"nonpayable"},{"type":"function","name":"updateTokenPrice","inputs":[{"name":"token","type":"address","internalType":"address"},{"name":"price","type":"uint256","internalType":"uint256"}],"outputs":[],"stateMutability":"nonpayable"},{"type":"event","name":"OwnershipTransferred","inputs":[{"name":"previousOwner","type":"address","indexed":true,"internalType":"address"},{"name":"newOwner","type":"address","indexed":true,"internalType":"address"}],"anonymous":false},{"type":"event","name":"PriceUpdated","inputs":[{"name":"token","type":"address","indexed":true,"internalType":"address"},{"name":"price","type":"uint256","indexed":false,"internalType":"uint256"}],"anonymous":false},{"type":"event","name":"TokenAdded","inputs":[{"name":"token","type":"address","indexed":true,"internalType":"address"},{"name":"symbol","type":"string","indexed":false,"internalType":"string"}],"anonymous":false},{"type":"event","name":"TokenRemoved","inputs":[{"name":"token","type":"address","indexed":true,"internalType":"address"}],"anonymous":false}],"bytecode":{"object":"0x608060405234801561000f575f5ffd5b5060015f8190555061003361002861016d60201b60201c565b61017460201b60201c565b600160025f5f73ffffffffffffffffffffffffffffffffffffffff1673ffffffffffffffffffffffffffffffffffffffff1681526020019081526020015f205f6101000a81548160ff0219169083151502179055506040518060400160405280600381526020017f455448000000000000000000000000000000000000000000000000000000000081525060035f5f73ffffffffffffffffffffffffffffffffffffffff1673ffffffffffffffffffffffffffffffffffffffff1681526020019081526020015f2090816101079190610474565b5060045f908060018154018082558091505060019003905f5260205f20015f9091909190916101000a81548173ffffffffffffffffffffffffffffffffffffffff021916908373ffffffffffffffffffffffffffffffffffffffff160217905550610543565b5f33905090565b5f60015f9054906101000a900473ffffffffffffffffffffffffffffffffffffffff1690508160015f6101000a81548173ffffffffffffffffffffffffffffffffffffffff021916908373ffffffffffffffffffffffffffffffffffffffff1602179055508173ffffffffffffffffffffffffffffffffffffffff168173ffffffffffffffffffffffffffffffffffffffff167f8be0079c531659141344cd1fd0a4f28419497f9722a3daafe3b4186f6b6457e060405160405180910390a35050565b5f81519050919050565b7f4e487b71000000000000000000000000000000000000000000000000000000005f52604160045260245ffd5b7f4e487b71000000000000000000000000000000000000000000000000000000005f52602260045260245ffd5b5f60028204905060018216806102b257607f821691505b6020821081036102c5576102c461026e565b5b50919050565b5f819050815f5260205f209050919050565b5f6020601f8301049050919050565b5f82821b905092915050565b5f600883026103277fffffffffffffffffffffffffffffffffffffffffffffffffffffffffffffffff826102ec565b61033186836102ec565b95508019841693508086168417925050509392505050565b5f819050919050565b5f819050919050565b5f61037561037061036b84610349565b610352565b610349565b9050919050565b5f819050919050565b61038e8361035b565b6103a261039a8261037c565b8484546102f8565b825550505050565b5f5f905090565b6103b96103aa565b6103c4818484610385565b505050565b5b818110156103e7576103dc5f826103b1565b6001810190506103ca565b5050565b601f82111561042c576103fd816102cb565b610406846102dd565b81016020851015610415578190505b610429610421856102dd565b8301826103c9565b50505b505050565b5f82821c905092915050565b5f61044c5f1984600802610431565b1980831691505092915050565b5f610464838361043d565b9150826002028217905092915050565b61047d82610237565b67ffffffffffffffff81111561049657610495610241565b5b6104a0825461029b565b6104ab8282856103eb565b5f60209050601f8311600181146104dc575f84156104ca578287015190505b6104d48582610459565b86555061053b565b601f1984166104ea866102cb565b5f5b82811015610511578489015182556001820191506020850194506020810190506104ec565b8683101561052e578489015161052a601f89168261043d565b8355505b6001600288020188555050505b505050505050565b611e85806105505f395ff3fe608060405234801561000f575f5ffd5b50600436106100cd575f3560e01c80638da5cb5b1161008a578063d4ee651b11610064578063d4ee651b14610210578063f08a25ed1461022c578063f2fde38b1461025c578063fb0b2b3614610278576100cd565b80638da5cb5b146101a35780639ead7222146101c1578063d3c7c2c7146101f1576100cd565b8063204120bc146100d15780633a3d1f981461010157806368c4ac2614610131578063715018a614610161578063720138e81461016b5780637631919014610187575b5f5ffd5b6100eb60048036038101906100e691906111de565b6102a8565b6040516100f89190611221565b60405180910390f35b61011b60048036038101906101169190611264565b6102bd565b6040516101289190611221565b60405180910390f35b61014b600480360381019061014691906111de565b6103f2565b60405161015891906112bc565b60405180910390f35b61016961040f565b005b61018560048036038101906101809190611411565b610422565b005b6101a1600480360381019061019c91906111de565b610674565b005b6101ab6109d2565b6040516101b8919061147a565b60405180910390f35b6101db60048036038101906101d69190611493565b6109fa565b6040516101e8919061147a565b60405180910390f35b6101f9610a35565b604051610207929190611690565b60405180910390f35b61022a60048036038101906102259190611264565b610c5c565b005b61024660048036038101906102419190611264565b610d81565b6040516102539190611221565b60405180910390f35b610276600480360381019061027191906111de565b610eb6565b005b610292600480360381019061028d91906111de565b610f38565b60405161029f919061170d565b60405180910390f35b6005602052805f5260405f205f915090505481565b5f60025f8473ffffffffffffffffffffffffffffffffffffffff1673ffffffffffffffffffffffffffffffffffffffff1681526020019081526020015f205f9054906101000a900460ff16610347576040517f08c379a000000000000000000000000000000000000000000000000000000000815260040161033e90611777565b60405180910390fd5b5f60055f8573ffffffffffffffffffffffffffffffffffffffff1673ffffffffffffffffffffffffffffffffffffffff1681526020019081526020015f205490505f81116103ca576040517f08c379a00000000000000000000000000000000000000000000000000000000081526004016103c1906117df565b60405180910390fd5b80670de0b6b3a7640000846103df919061182a565b6103e99190611898565b91505092915050565b6002602052805f5260405f205f915054906101000a900460ff1681565b610417610fd3565b6104205f611051565b565b61042a610fd3565b5f73ffffffffffffffffffffffffffffffffffffffff168273ffffffffffffffffffffffffffffffffffffffff1603610498576040517f08c379a000000000000000000000000000000000000000000000000000000000815260040161048f90611912565b60405180910390fd5b60025f8373ffffffffffffffffffffffffffffffffffffffff1673ffffffffffffffffffffffffffffffffffffffff1681526020019081526020015f205f9054906101000a900460ff1615610522576040517f08c379a00000000000000000000000000000000000000000000000000000000081526004016105199061197a565b60405180910390fd5b600160025f8473ffffffffffffffffffffffffffffffffffffffff1673ffffffffffffffffffffffffffffffffffffffff1681526020019081526020015f205f6101000a81548160ff0219169083151502179055508060035f8473ffffffffffffffffffffffffffffffffffffffff1673ffffffffffffffffffffffffffffffffffffffff1681526020019081526020015f2090816105c19190611b95565b50600482908060018154018082558091505060019003905f5260205f20015f9091909190916101000a81548173ffffffffffffffffffffffffffffffffffffffff021916908373ffffffffffffffffffffffffffffffffffffffff1602179055508173ffffffffffffffffffffffffffffffffffffffff167f7afee0f1b802cc0f66c67890e26b4566251859cf2cd8de79b86aed7251d9756a82604051610668919061170d565b60405180910390a25050565b61067c610fd3565b5f73ffffffffffffffffffffffffffffffffffffffff168173ffffffffffffffffffffffffffffffffffffffff16036106ea576040517f08c379a00000000000000000000000000000000000000000000000000000000081526004016106e190611cae565b60405180910390fd5b60025f8273ffffffffffffffffffffffffffffffffffffffff1673ffffffffffffffffffffffffffffffffffffffff1681526020019081526020015f205f9054906101000a900460ff16610773576040517f08c379a000000000000000000000000000000000000000000000000000000000815260040161076a90611777565b60405180910390fd5b5f60025f8373ffffffffffffffffffffffffffffffffffffffff1673ffffffffffffffffffffffffffffffffffffffff1681526020019081526020015f205f6101000a81548160ff02191690831515021790555060035f8273ffffffffffffffffffffffffffffffffffffffff1673ffffffffffffffffffffffffffffffffffffffff1681526020019081526020015f205f61080f919061111b565b5f5f90505b60048054905081101561098b578173ffffffffffffffffffffffffffffffffffffffff166004828154811061084c5761084b611ccc565b5b905f5260205f20015f9054906101000a900473ffffffffffffffffffffffffffffffffffffffff1673ffffffffffffffffffffffffffffffffffffffff160361097e57600460016004805490506108a39190611cf9565b815481106108b4576108b3611ccc565b5b905f5260205f20015f9054906101000a900473ffffffffffffffffffffffffffffffffffffffff16600482815481106108f0576108ef611ccc565b5b905f5260205f20015f6101000a81548173ffffffffffffffffffffffffffffffffffffffff021916908373ffffffffffffffffffffffffffffffffffffffff160217905550600480548061094757610946611d2c565b5b600190038181905f5260205f20015f6101000a81549073ffffffffffffffffffffffffffffffffffffffff0219169055905561098b565b8080600101915050610814565b508073ffffffffffffffffffffffffffffffffffffffff167f4c910b69fe65a61f7531b9c5042b2329ca7179c77290aa7e2eb3afa3c8511fd360405160405180910390a250565b5f60015f9054906101000a900473ffffffffffffffffffffffffffffffffffffffff16905090565b60048181548110610a09575f80fd5b905f5260205f20015f915054906101000a900473ffffffffffffffffffffffffffffffffffffffff1681565b6060805f60048054905067ffffffffffffffff811115610a5857610a576112ed565b5b604051908082528060200260200182016040528015610a8b57816020015b6060815260200190600190039081610a765790505b5090505f5f90505b600480549050811015610bca5760035f60048381548110610ab757610ab6611ccc565b5b905f5260205f20015f9054906101000a900473ffffffffffffffffffffffffffffffffffffffff1673ffffffffffffffffffffffffffffffffffffffff1673ffffffffffffffffffffffffffffffffffffffff1681526020019081526020015f208054610b23906119c5565b80601f0160208091040260200160405190810160405280929190818152602001828054610b4f906119c5565b8015610b9a5780601f10610b7157610100808354040283529160200191610b9a565b820191905f5260205f20905b815481529060010190602001808311610b7d57829003601f168201915b5050505050828281518110610bb257610bb1611ccc565b5b60200260200101819052508080600101915050610a93565b5060048181805480602002602001604051908101604052809291908181526020018280548015610c4c57602002820191905f5260205f20905b815f9054906101000a900473ffffffffffffffffffffffffffffffffffffffff1673ffffffffffffffffffffffffffffffffffffffff1681526020019060010190808311610c03575b5050505050915092509250509091565b610c64610fd3565b60025f8373ffffffffffffffffffffffffffffffffffffffff1673ffffffffffffffffffffffffffffffffffffffff1681526020019081526020015f205f9054906101000a900460ff16610ced576040517f08c379a0000000000000000000000000000000000000000000000000000000008152600401610ce490611777565b60405180910390fd5b8060055f8473ffffffffffffffffffffffffffffffffffffffff1673ffffffffffffffffffffffffffffffffffffffff1681526020019081526020015f20819055508173ffffffffffffffffffffffffffffffffffffffff167f0d86730737b142fc160892fa8a0f2db687a92a0e294d1ad70624cf5acef03b8482604051610d759190611221565b60405180910390a25050565b5f60025f8473ffffffffffffffffffffffffffffffffffffffff1673ffffffffffffffffffffffffffffffffffffffff1681526020019081526020015f205f9054906101000a900460ff16610e0b576040517f08c379a0000000000000000000000000000000000000000000000000000000008152600401610e0290611777565b60405180910390fd5b5f60055f8573ffffffffffffffffffffffffffffffffffffffff1673ffffffffffffffffffffffffffffffffffffffff1681526020019081526020015f205490505f8111610e8e576040517f08c379a0000000000000000000000000000000000000000000000000000000008152600401610e85906117df565b60405180910390fd5b670de0b6b3a76400008184610ea3919061182a565b610ead9190611898565b91505092915050565b610ebe610fd3565b5f73ffffffffffffffffffffffffffffffffffffffff168173ffffffffffffffffffffffffffffffffffffffff1603610f2c576040517f08c379a0000000000000000000000000000000000000000000000000000000008152600401610f2390611dc9565b60405180910390fd5b610f3581611051565b50565b6003602052805f5260405f205f915090508054610f54906119c5565b80601f0160208091040260200160405190810160405280929190818152602001828054610f80906119c5565b8015610fcb5780601f10610fa257610100808354040283529160200191610fcb565b820191905f5260205f20905b815481529060010190602001808311610fae57829003601f168201915b505050505081565b610fdb611114565b73ffffffffffffffffffffffffffffffffffffffff16610ff96109d2565b73ffffffffffffffffffffffffffffffffffffffff161461104f576040517f08c379a000000000000000000000000000000000000000000000000000000000815260040161104690611e31565b60405180910390fd5b565b5f60015f9054906101000a900473ffffffffffffffffffffffffffffffffffffffff1690508160015f6101000a81548173ffffffffffffffffffffffffffffffffffffffff021916908373ffffffffffffffffffffffffffffffffffffffff1602179055508173ffffffffffffffffffffffffffffffffffffffff168173ffffffffffffffffffffffffffffffffffffffff167f8be0079c531659141344cd1fd0a4f28419497f9722a3daafe3b4186f6b6457e060405160405180910390a35050565b5f33905090565b508054611127906119c5565b5f825580601f106111385750611155565b601f0160209004905f5260205f20908101906111549190611158565b5b50565b5b8082111561116f575f815f905550600101611159565b5090565b5f604051905090565b5f5ffd5b5f5ffd5b5f73ffffffffffffffffffffffffffffffffffffffff82169050919050565b5f6111ad82611184565b9050919050565b6111bd816111a3565b81146111c7575f5ffd5b50565b5f813590506111d8816111b4565b92915050565b5f602082840312156111f3576111f261117c565b5b5f611200848285016111ca565b91505092915050565b5f819050919050565b61121b81611209565b82525050565b5f6020820190506112345f830184611212565b92915050565b61124381611209565b811461124d575f5ffd5b50565b5f8135905061125e8161123a565b92915050565b5f5f6040838503121561127a5761127961117c565b5b5f611287858286016111ca565b925050602061129885828601611250565b9150509250929050565b5f8115159050919050565b6112b6816112a2565b82525050565b5f6020820190506112cf5f8301846112ad565b92915050565b5f5ffd5b5f5ffd5b5f601f19601f8301169050919050565b7f4e487b71000000000000000000000000000000000000000000000000000000005f52604160045260245ffd5b611323826112dd565b810181811067ffffffffffffffff82111715611342576113416112ed565b5b80604052505050565b5f611354611173565b9050611360828261131a565b919050565b5f67ffffffffffffffff82111561137f5761137e6112ed565b5b611388826112dd565b9050602081019050919050565b828183375f83830152505050565b5f6113b56113b084611365565b61134b565b9050828152602081018484840111156113d1576113d06112d9565b5b6113dc848285611395565b509392505050565b5f82601f8301126113f8576113f76112d5565b5b81356114088482602086016113a3565b91505092915050565b5f5f604083850312156114275761142661117c565b5b5f611434858286016111ca565b925050602083013567ffffffffffffffff81111561145557611454611180565b5b611461858286016113e4565b9150509250929050565b611474816111a3565b82525050565b5f60208201905061148d5f83018461146b565b92915050565b5f602082840312156114a8576114a761117c565b5b5f6114b584828501611250565b91505092915050565b5f81519050919050565b5f82825260208201905092915050565b5f819050602082019050919050565b6114f0816111a3565b82525050565b5f61150183836114e7565b60208301905092915050565b5f602082019050919050565b5f611523826114be565b61152d81856114c8565b9350611538836114d8565b805f5b8381101561156857815161154f88826114f6565b975061155a8361150d565b92505060018101905061153b565b5085935050505092915050565b5f81519050919050565b5f82825260208201905092915050565b5f819050602082019050919050565b5f81519050919050565b5f82825260208201905092915050565b8281835e5f83830152505050565b5f6115d08261159e565b6115da81856115a8565b93506115ea8185602086016115b8565b6115f3816112dd565b840191505092915050565b5f61160983836115c6565b905092915050565b5f602082019050919050565b5f61162782611575565b611631818561157f565b9350836020820285016116438561158f565b805f5b8581101561167e578484038952815161165f85826115fe565b945061166a83611611565b925060208a01995050600181019050611646565b50829750879550505050505092915050565b5f6040820190508181035f8301526116a88185611519565b905081810360208301526116bc818461161d565b90509392505050565b5f82825260208201905092915050565b5f6116df8261159e565b6116e981856116c5565b93506116f98185602086016115b8565b611702816112dd565b840191505092915050565b5f6020820190508181035f83015261172581846116d5565b905092915050565b7f546f6b656e206e6f7420737570706f72746564000000000000000000000000005f82015250565b5f6117616013836116c5565b915061176c8261172d565b602082019050919050565b5f6020820190508181035f83015261178e81611755565b9050919050565b7f5072696365206e6f7420736574000000000000000000000000000000000000005f82015250565b5f6117c9600d836116c5565b91506117d482611795565b602082019050919050565b5f6020820190508181035f8301526117f6816117bd565b9050919050565b7f4e487b71000000000000000000000000000000000000000000000000000000005f52601160045260245ffd5b5f61183482611209565b915061183f83611209565b925082820261184d81611209565b91508282048414831517611864576118636117fd565b5b5092915050565b7f4e487b71000000000000000000000000000000000000000000000000000000005f52601260045260245ffd5b5f6118a282611209565b91506118ad83611209565b9250826118bd576118bc61186b565b5b828204905092915050565b7f557365206164647265737328302920666f7220455448000000000000000000005f82015250565b5f6118fc6016836116c5565b9150611907826118c8565b602082019050919050565b5f6020820190508181035f830152611929816118f0565b9050919050565b7f546f6b656e20616c726561647920737570706f727465640000000000000000005f82015250565b5f6119646017836116c5565b915061196f82611930565b602082019050919050565b5f6020820190508181035f83015261199181611958565b9050919050565b7f4e487b71000000000000000000000000000000000000000000000000000000005f52602260045260245ffd5b5f60028204905060018216806119dc57607f821691505b6020821081036119ef576119ee611998565b5b50919050565b5f819050815f5260205f209050919050565b5f6020601f8301049050919050565b5f82821b905092915050565b5f60088302611a517fffffffffffffffffffffffffffffffffffffffffffffffffffffffffffffffff82611a16565b611a5b8683611a16565b95508019841693508086168417925050509392505050565b5f819050919050565b5f611a96611a91611a8c84611209565b611a73565b611209565b9050919050565b5f819050919050565b611aaf83611a7c565b611ac3611abb82611a9d565b848454611a22565b825550505050565b5f5f905090565b611ada611acb565b611ae5818484611aa6565b505050565b5b81811015611b0857611afd5f82611ad2565b600181019050611aeb565b5050565b601f821115611b4d57611b1e816119f5565b611b2784611a07565b81016020851015611b36578190505b611b4a611b4285611a07565b830182611aea565b50505b505050565b5f82821c905092915050565b5f611b6d5f1984600802611b52565b1980831691505092915050565b5f611b858383611b5e565b9150826002028217905092915050565b611b9e8261159e565b67ffffffffffffffff811115611bb757611bb66112ed565b5b611bc182546119c5565b611bcc828285611b0c565b5f60209050601f831160018114611bfd575f8415611beb578287015190505b611bf58582611b7a565b865550611c5c565b601f198416611c0b866119f5565b5f5b82811015611c3257848901518255600182019150602085019450602081019050611c0d565b86831015611c4f5784890151611c4b601f891682611b5e565b8355505b6001600288020188555050505b505050505050565b7f43616e6e6f742072656d6f7665204554480000000000000000000000000000005f82015250565b5f611c986011836116c5565b9150611ca382611c64565b602082019050919050565b5f6020820190508181035f830152611cc581611c8c565b9050919050565b7f4e487b71000000000000000000000000000000000000000000000000000000005f52603260045260245ffd5b5f611d0382611209565b9150611d0e83611209565b9250828203905081811115611d2657611d256117fd565b5b92915050565b7f4e487b71000000000000000000000000000000000000000000000000000000005f52603160045260245ffd5b7f4f776e61626c653a206e6577206f776e657220697320746865207a65726f20615f8201527f6464726573730000000000000000000000000000000000000000000000000000602082015250565b5f611db36026836116c5565b9150611dbe82611d59565b604082019050919050565b5f6020820190508181035f830152611de081611da7565b9050919050565b7f4f776e61626c653a2063616c6c6572206973206e6f7420746865206f776e65725f82015250565b5f611e1b6020836116c5565b9150611e2682611de7565b602082019050919050565b5f6020820190508181035f830152611e4881611e0f565b905091905056fea2646970667358221220ac8405d7d1a30bc4483cb4e1d57a3dd8a0dc2bb44ae0b91216ccbafbb93752e864736f6c634300081e0033","linkReferences":{}},"methodIdentifiers":{"addSupportedToken(address,string)":"720138e8","convertFromUSD(address,uint256)":"3a3d1f98","convertToUSD(address,uint256)":"f08a25ed","getSupportedTokens()":"d3c7c2c7","owner()":"8da5cb5b","removeSupportedToken(address)":"76319190","renounceOwnership()":"715018a6","supportedTokens(address)":"68c4ac26","tokenList(uint256)":"9ead7222","tokenPrices(address)":"204120bc","tokenSymbols(address)":"fb0b2b36","transferOwnership(address)":"f2fde38b","updateTokenPrice(address,uint256)":"d4ee651b"},"id":3}