{"abi":[{"type":"constructor","inputs":[{"name":"_splitChainCore","type":"address","internalType":"address"}],"stateMutability":"nonpayable"},{"type":"function","name":"getGroupStats","inputs":[{"name":"groupId","type":"uint256","internalType":"uint256"}],"outputs":[{"name":"","type":"tuple","internalType":"struct SplitChainAnalytics.GroupStats","components":[{"name":"totalExpenses","type":"uint256","internalType":"uint256"},{"name":"totalAmount","type":"uint256","internalType":"uint256"},{"name":"settledAmount","type":"uint256","internalType":"uint256"},{"name":"pendingAmount","type":"uint256","internalType":"uint256"},{"name":"memberCount","type":"uint256","internalType":"uint256"},{"name":"avgExpenseAmount","type":"uint256","internalType":"uint256"},{"name":"lastActivityTime","type":"uint256","internalType":"uint256"}]}],"stateMutability":"view"},{"type":"function","name":"getSettlementRate","inputs":[{"name":"groupId","type":"uint256","internalType":"uint256"}],"outputs":[{"name":"","type":"uint256","internalType":"uint256"}],"stateMutability":"view"},{"type":"function","name":"getTopSpenders","inputs":[{"name":"groupId","type":"uint256","internalType":"uint256"},{"name":"limit","type":"uint256","internalType":"uint256"}],"outputs":[{"name":"","type":"address[]","internalType":"address[]"},{"name":"","type":"uint256[]","internalType":"uint256[]"}],"stateMutability":"view"},{"type":"function","name":"getUserStats","inputs":[{"name":"user","type":"address","internalType":"address"}],"outputs":[{"name":"","type":"tuple","internalType":"struct SplitChainAnalytics.UserStats","components":[{"name":"totalGroupsJoined","type":"uint256","internalType":"uint256"},{"name":"totalExpensesPaid","type":"uint256","internalType":"uint256"},{"name":"totalAmountPaid","type":"uint256","internalType":"uint256"},{"name":"totalAmountOwed","type":"uint256","internalType":"uint256"},{"name":"totalAmountSettled","type":"uint256","internalType":"uint256"},{"name":"avgSettlementTime","type":"uint256","internalType":"uint256"}]}],"stateMutability":"view"},{"type":"function","name":"splitChainCore","inputs":[],"outputs":[{"name":"","type":"address","internalType":"contract SplitChainCore"}],"stateMutability":"view"}],"bytecode":{"object":"0x60a060405234801561000f575f5ffd5b50604051610c53380380610c5383398101604081905261002e9161003f565b6001600160a01b031660805261006c565b5f6020828403121561004f575f5ffd5b81516001600160a01b0381168114610065575f5ffd5b9392505050565b608051610bac6100a75f395f8181610170015281816101b0015281816102ea0152818161048a0152818161053e01526106aa0152610bac5ff3fe608060405234801561000f575f5ffd5b5060043610610055575f3560e01c8063373a2129146100595780634e43603a14610083578063703bea64146100e1578063c9861dcb14610103578063d9eb0aa21461016b575b5f5ffd5b61006c610067366004610766565b6101aa565b60405161007a929190610786565b60405180910390f35b610096610091366004610826565b610436565b60405161007a91905f60c082019050825182526020830151602083015260408301516040830152606083015160608301526080830151608083015260a083015160a083015292915050565b6100f56100ef366004610848565b50605590565b60405190815260200161007a565b610116610111366004610848565b61064f565b60405161007a91905f60e082019050825182526020830151602083015260408301516040830152606083015160608301526080830151608083015260a083015160a083015260c083015160c083015292915050565b6101927f000000000000000000000000000000000000000000000000000000000000000081565b6040516001600160a01b03909116815260200161007a565b6060805f7f00000000000000000000000000000000000000000000000000000000000000006001600160a01b031663ceb60654866040518263ffffffff1660e01b81526004016101fc91815260200190565b5f60405180830381865afa158015610216573d5f5f3e3d5ffd5b505050506040513d5f823e601f3d908101601f1916820160405261023d9190810190610959565b50505093505050505f8467ffffffffffffffff81111561025f5761025f61085f565b604051908082528060200260200182016040528015610288578160200160208202803683370190505b5090505f8567ffffffffffffffff8111156102a5576102a561085f565b6040519080825280602002602001820160405280156102ce578160200160208202803683370190505b5090505f5b8351811080156102e257508681105b15610429575f7f00000000000000000000000000000000000000000000000000000000000000006001600160a01b031663cdfb6cf38a87858151811061032a5761032a610a5b565b60200260200101516040518363ffffffff1660e01b81526004016103619291909182526001600160a01b0316602082015260400190565b602060405180830381865afa15801561037c573d5f5f3e3d5ffd5b505050506040513d601f19601f820116820180604052508101906103a09190610a6f565b90505f811315610416578482815181106103bc576103bc610a5b565b60200260200101518483815181106103d6576103d6610a5b565b60200260200101906001600160a01b031690816001600160a01b0316815250508083838151811061040957610409610a5b565b6020026020010181815250505b508061042181610a9a565b9150506102d3565b5090969095509350505050565b6104696040518060c001604052805f81526020015f81526020015f81526020015f81526020015f81526020015f81525090565b604051631ed0272560e11b81526001600160a01b0383811660048301525f917f000000000000000000000000000000000000000000000000000000000000000090911690633da04e4a906024015f60405180830381865afa1580156104d0573d5f5f3e3d5ffd5b505050506040513d5f823e601f3d908101601f191682016040526104f79190810190610ab2565b905061052c6040518060c001604052805f81526020015f81526020015f81526020015f81526020015f81526020015f81525090565b815181525f5b8251811015610647575f7f00000000000000000000000000000000000000000000000000000000000000006001600160a01b031663cdfb6cf385848151811061057d5761057d610a5b565b6020026020010151886040518363ffffffff1660e01b81526004016105b59291909182526001600160a01b0316602082015260400190565b602060405180830381865afa1580156105d0573d5f5f3e3d5ffd5b505050506040513d601f19601f820116820180604052508101906105f49190610a6f565b90505f8113156106185780836060018181516106109190610b43565b90525061063e565b5f81121561063e5761062981610b5c565b8360400181815161063a9190610b43565b9052505b50600101610532565b509392505050565b6106886040518060e001604052805f81526020015f81526020015f81526020015f81526020015f81526020015f81526020015f81525090565b6040516333ad819560e21b8152600481018390525f9081906001600160a01b037f0000000000000000000000000000000000000000000000000000000000000000169063ceb60654906024015f60405180830381865afa1580156106ee573d5f5f3e3d5ffd5b505050506040513d5f823e601f3d908101601f191682016040526107159190810190610959565b5050945094505050506107576040518060e001604052805f81526020015f81526020015f81526020015f81526020015f81526020015f81526020015f81525090565b91516080830152815292915050565b5f5f60408385031215610777575f5ffd5b50508035926020909101359150565b604080825283519082018190525f9060208501906060840190835b818110156107c85783516001600160a01b03168352602093840193909201916001016107a1565b5050838103602080860191909152855180835291810192508501905f5b818110156108035782518452602093840193909201916001016107e5565b50919695505050505050565b6001600160a01b0381168114610823575f5ffd5b50565b5f60208284031215610836575f5ffd5b81356108418161080f565b9392505050565b5f60208284031215610858575f5ffd5b5035919050565b634e487b7160e01b5f52604160045260245ffd5b604051601f8201601f1916810167ffffffffffffffff8111828210171561089c5761089c61085f565b604052919050565b80516108af8161080f565b919050565b5f67ffffffffffffffff8211156108cd576108cd61085f565b5060051b60200190565b5f82601f8301126108e6575f5ffd5b81516108f96108f4826108b4565b610873565b8082825260208201915060208360051b86010192508583111561091a575f5ffd5b602085015b838110156109405780516109328161080f565b83526020928301920161091f565b5095945050505050565b805180151581146108af575f5ffd5b5f5f5f5f5f5f5f60e0888a03121561096f575f5ffd5b8751602089015190975067ffffffffffffffff81111561098d575f5ffd5b8801601f81018a1361099d575f5ffd5b805167ffffffffffffffff8111156109b7576109b761085f565b6109ca601f8201601f1916602001610873565b8181528b60208385010111156109de575f5ffd5b8160208401602083015e5f60208383010152809850505050610a02604089016108a4565b9450606088015167ffffffffffffffff811115610a1d575f5ffd5b610a298a828b016108d7565b60808a01519095509350610a41905060a0890161094a565b91505f60c089015190508091505092959891949750929550565b634e487b7160e01b5f52603260045260245ffd5b5f60208284031215610a7f575f5ffd5b5051919050565b634e487b7160e01b5f52601160045260245ffd5b5f60018201610aab57610aab610a86565b5060010190565b5f60208284031215610ac2575f5ffd5b815167ffffffffffffffff811115610ad8575f5ffd5b8201601f81018413610ae8575f5ffd5b8051610af66108f4826108b4565b8082825260208201915060208360051b850101925086831115610b17575f5ffd5b6020840193505b82841015610b39578351825260209384019390910190610b1e565b9695505050505050565b80820180821115610b5657610b56610a86565b92915050565b5f600160ff1b8201610b7057610b70610a86565b505f039056fea264697066735822122083d2ec07a24845093798520412f536e94940a218865b4019a788ad8df68a4e2c64736f6c634300081e0033","linkReferences":{}},"methodIdentifiers":{"getGroupStats(uint256)":"c9861dcb","getSettlementRate(uint256)":"703bea64","getTopSpenders(uint256,uint256)":"373a2129","getUserStats(address)":"4e43603a","splitChainCore()":"d9eb0aa2"},"id":0}