{"abi":[{"type":"constructor","inputs":[{"name":"_splitChainCore","type":"address","internalType":"address"}],"stateMutability":"nonpayable"},{"type":"function","name":"getGroupStats","inputs":[{"name":"groupId","type":"uint256","internalType":"uint256"}],"outputs":[{"name":"","type":"tuple","internalType":"struct SplitChainAnalytics.GroupStats","components":[{"name":"totalExpenses","type":"uint256","internalType":"uint256"},{"name":"totalAmount","type":"uint256","internalType":"uint256"},{"name":"settledAmount","type":"uint256","internalType":"uint256"},{"name":"pendingAmount","type":"uint256","internalType":"uint256"},{"name":"memberCount","type":"uint256","internalType":"uint256"},{"name":"avgExpenseAmount","type":"uint256","internalType":"uint256"},{"name":"lastActivityTime","type":"uint256","internalType":"uint256"}]}],"stateMutability":"view"},{"type":"function","name":"getSettlementRate","inputs":[{"name":"groupId","type":"uint256","internalType":"uint256"}],"outputs":[{"name":"","type":"uint256","internalType":"uint256"}],"stateMutability":"view"},{"type":"function","name":"getTopSpenders","inputs":[{"name":"groupId","type":"uint256","internalType":"uint256"},{"name":"limit","type":"uint256","internalType":"uint256"}],"outputs":[{"name":"","type":"address[]","internalType":"address[]"},{"name":"","type":"uint256[]","internalType":"uint256[]"}],"stateMutability":"view"},{"type":"function","name":"getUserStats","inputs":[{"name":"user","type":"address","internalType":"address"}],"outputs":[{"name":"","type":"tuple","internalType":"struct SplitChainAnalytics.UserStats","components":[{"name":"totalGroupsJoined","type":"uint256","internalType":"uint256"},{"name":"totalExpensesPaid","type":"uint256","internalType":"uint256"},{"name":"totalAmountPaid","type":"uint256","internalType":"uint256"},{"name":"totalAmountOwed","type":"uint256","internalType":"uint256"},{"name":"totalAmountSettled","type":"uint256","internalType":"uint256"},{"name":"avgSettlementTime","type":"uint256","internalType":"uint256"}]}],"stateMutability":"view"},{"type":"function","name":"splitChainCore","inputs":[],"outputs":[{"name":"","type":"address","internalType":"contract SplitChainCore"}],"stateMutability":"view"}],"bytecode":{"object":"0x60a060405234801561000f575f5ffd5b5060405161135b38038061135b833981810160405281019061003191906100c9565b8073ffffffffffffffffffffffffffffffffffffffff1660808173ffffffffffffffffffffffffffffffffffffffff1681525050506100f4565b5f5ffd5b5f73ffffffffffffffffffffffffffffffffffffffff82169050919050565b5f6100988261006f565b9050919050565b6100a88161008e565b81146100b2575f5ffd5b50565b5f815190506100c38161009f565b92915050565b5f602082840312156100de576100dd61006b565b5b5f6100eb848285016100b5565b91505092915050565b60805161122c61012f5f395f818161013e0152818161029301528181610408015281816104c6015281816105fb01526106c6015261122c5ff3fe608060405234801561000f575f5ffd5b5060043610610055575f3560e01c8063373a2129146100595780634e43603a1461008a578063703bea64146100ba578063c9861dcb146100ea578063d9eb0aa21461011a575b5f5ffd5b610073600480360381019061006e9190610792565b610138565b60405161008192919061096e565b60405180910390f35b6100a4600480360381019061009f91906109cd565b6103fd565b6040516100b19190610a71565b60405180910390f35b6100d460048036038101906100cf9190610a8a565b6105e5565b6040516100e19190610ac4565b60405180910390f35b61010460048036038101906100ff9190610a8a565b6105ef565b6040516101119190610b69565b60405180910390f35b6101226106c4565b60405161012f9190610bdd565b60405180910390f35b6060805f7f000000000000000000000000000000000000000000000000000000000000000073ffffffffffffffffffffffffffffffffffffffff1663ceb60654866040518263ffffffff1660e01b81526004016101959190610ac4565b5f60405180830381865afa1580156101af573d5f5f3e3d5ffd5b505050506040513d5f823e3d601f19601f820116820180604052508101906101d79190610e53565b50505093505050505f8467ffffffffffffffff8111156101fa576101f9610c22565b5b6040519080825280602002602001820160405280156102285781602001602082028036833780820191505090505b5090505f8567ffffffffffffffff81111561024657610245610c22565b5b6040519080825280602002602001820160405280156102745781602001602082028036833780820191505090505b5090505f5f90505b83518110801561028b57508681105b156103ec575f7f000000000000000000000000000000000000000000000000000000000000000073ffffffffffffffffffffffffffffffffffffffff1663cdfb6cf38a8785815181106102e1576102e0610f28565b5b60200260200101516040518363ffffffff1660e01b8152600401610306929190610f64565b602060405180830381865afa158015610321573d5f5f3e3d5ffd5b505050506040513d601f19601f820116820180604052508101906103459190610fbe565b90505f8113156103d85784828151811061036257610361610f28565b5b602002602001015184838151811061037d5761037c610f28565b5b602002602001019073ffffffffffffffffffffffffffffffffffffffff16908173ffffffffffffffffffffffffffffffffffffffff1681525050808383815181106103cb576103ca610f28565b5b6020026020010181815250505b5080806103e490611016565b91505061027c565b508181945094505050509250929050565b6104056106e8565b5f7f000000000000000000000000000000000000000000000000000000000000000073ffffffffffffffffffffffffffffffffffffffff16633da04e4a846040518263ffffffff1660e01b815260040161045f919061105d565b5f60405180830381865afa158015610479573d5f5f3e3d5ffd5b505050506040513d5f823e3d601f19601f820116820180604052508101906104a19190611136565b90506104ab6106e8565b8151815f0181815250505f5f90505b82518110156105da575f7f000000000000000000000000000000000000000000000000000000000000000073ffffffffffffffffffffffffffffffffffffffff1663cdfb6cf385848151811061051357610512610f28565b5b6020026020010151886040518363ffffffff1660e01b8152600401610539929190610f64565b602060405180830381865afa158015610554573d5f5f3e3d5ffd5b505050506040513d601f19601f820116820180604052508101906105789190610fbe565b90505f8113156105a0578083606001818151610594919061117d565b915081815250506105cc565b5f8112156105cb57806105b2906111b0565b836040018181516105c3919061117d565b915081815250505b5b5080806001019150506104ba565b508092505050919050565b5f60559050919050565b6105f7610718565b5f5f7f000000000000000000000000000000000000000000000000000000000000000073ffffffffffffffffffffffffffffffffffffffff1663ceb60654856040518263ffffffff1660e01b81526004016106529190610ac4565b5f60405180830381865afa15801561066c573d5f5f3e3d5ffd5b505050506040513d5f823e3d601f19601f820116820180604052508101906106949190610e53565b5050945094505050506106a5610718565b825181608001818152505081815f018181525050809350505050919050565b7f000000000000000000000000000000000000000000000000000000000000000081565b6040518060c001604052805f81526020015f81526020015f81526020015f81526020015f81526020015f81525090565b6040518060e001604052805f81526020015f81526020015f81526020015f81526020015f81526020015f81526020015f81525090565b5f604051905090565b5f5ffd5b5f5ffd5b5f819050919050565b6107718161075f565b811461077b575f5ffd5b50565b5f8135905061078c81610768565b92915050565b5f5f604083850312156107a8576107a7610757565b5b5f6107b58582860161077e565b92505060206107c68582860161077e565b9150509250929050565b5f81519050919050565b5f82825260208201905092915050565b5f819050602082019050919050565b5f73ffffffffffffffffffffffffffffffffffffffff82169050919050565b5f610822826107f9565b9050919050565b61083281610818565b82525050565b5f6108438383610829565b60208301905092915050565b5f602082019050919050565b5f610865826107d0565b61086f81856107da565b935061087a836107ea565b805f5b838110156108aa5781516108918882610838565b975061089c8361084f565b92505060018101905061087d565b5085935050505092915050565b5f81519050919050565b5f82825260208201905092915050565b5f819050602082019050919050565b6108e98161075f565b82525050565b5f6108fa83836108e0565b60208301905092915050565b5f602082019050919050565b5f61091c826108b7565b61092681856108c1565b9350610931836108d1565b805f5b8381101561096157815161094888826108ef565b975061095383610906565b925050600181019050610934565b5085935050505092915050565b5f6040820190508181035f830152610986818561085b565b9050818103602083015261099a8184610912565b90509392505050565b6109ac81610818565b81146109b6575f5ffd5b50565b5f813590506109c7816109a3565b92915050565b5f602082840312156109e2576109e1610757565b5b5f6109ef848285016109b9565b91505092915050565b60c082015f820151610a0c5f8501826108e0565b506020820151610a1f60208501826108e0565b506040820151610a3260408501826108e0565b506060820151610a4560608501826108e0565b506080820151610a5860808501826108e0565b5060a0820151610a6b60a08501826108e0565b50505050565b5f60c082019050610a845f8301846109f8565b92915050565b5f60208284031215610a9f57610a9e610757565b5b5f610aac8482850161077e565b91505092915050565b610abe8161075f565b82525050565b5f602082019050610ad75f830184610ab5565b92915050565b60e082015f820151610af15f8501826108e0565b506020820151610b0460208501826108e0565b506040820151610b1760408501826108e0565b506060820151610b2a60608501826108e0565b506080820151610b3d60808501826108e0565b5060a0820151610b5060a08501826108e0565b5060c0820151610b6360c08501826108e0565b50505050565b5f60e082019050610b7c5f830184610add565b92915050565b5f819050919050565b5f610ba5610ba0610b9b846107f9565b610b82565b6107f9565b9050919050565b5f610bb682610b8b565b9050919050565b5f610bc782610bac565b9050919050565b610bd781610bbd565b82525050565b5f602082019050610bf05f830184610bce565b92915050565b5f81519050610c0481610768565b92915050565b5f5ffd5b5f5ffd5b5f601f19601f8301169050919050565b7f4e487b71000000000000000000000000000000000000000000000000000000005f52604160045260245ffd5b610c5882610c12565b810181811067ffffffffffffffff82111715610c7757610c76610c22565b5b80604052505050565b5f610c8961074e565b9050610c958282610c4f565b919050565b5f67ffffffffffffffff821115610cb457610cb3610c22565b5b610cbd82610c12565b9050602081019050919050565b8281835e5f83830152505050565b5f610cea610ce584610c9a565b610c80565b905082815260208101848484011115610d0657610d05610c0e565b5b610d11848285610cca565b509392505050565b5f82601f830112610d2d57610d2c610c0a565b5b8151610d3d848260208601610cd8565b91505092915050565b5f81519050610d54816109a3565b92915050565b5f67ffffffffffffffff821115610d7457610d73610c22565b5b602082029050602081019050919050565b5f5ffd5b5f610d9b610d9684610d5a565b610c80565b90508083825260208201905060208402830185811115610dbe57610dbd610d85565b5b835b81811015610de75780610dd38882610d46565b845260208401935050602081019050610dc0565b5050509392505050565b5f82601f830112610e0557610e04610c0a565b5b8151610e15848260208601610d89565b91505092915050565b5f8115159050919050565b610e3281610e1e565b8114610e3c575f5ffd5b50565b5f81519050610e4d81610e29565b92915050565b5f5f5f5f5f5f5f60e0888a031215610e6e57610e6d610757565b5b5f610e7b8a828b01610bf6565b975050602088015167ffffffffffffffff811115610e9c57610e9b61075b565b5b610ea88a828b01610d19565b9650506040610eb98a828b01610d46565b955050606088015167ffffffffffffffff811115610eda57610ed961075b565b5b610ee68a828b01610df1565b9450506080610ef78a828b01610bf6565b93505060a0610f088a828b01610e3f565b92505060c0610f198a828b01610bf6565b91505092959891949750929550565b7f4e487b71000000000000000000000000000000000000000000000000000000005f52603260045260245ffd5b610f5e81610818565b82525050565b5f604082019050610f775f830185610ab5565b610f846020830184610f55565b9392505050565b5f819050919050565b610f9d81610f8b565b8114610fa7575f5ffd5b50565b5f81519050610fb881610f94565b92915050565b5f60208284031215610fd357610fd2610757565b5b5f610fe084828501610faa565b91505092915050565b7f4e487b71000000000000000000000000000000000000000000000000000000005f52601160045260245ffd5b5f6110208261075f565b91507fffffffffffffffffffffffffffffffffffffffffffffffffffffffffffffffff820361105257611051610fe9565b5b600182019050919050565b5f6020820190506110705f830184610f55565b92915050565b5f67ffffffffffffffff8211156110905761108f610c22565b5b602082029050602081019050919050565b5f6110b36110ae84611076565b610c80565b905080838252602082019050602084028301858111156110d6576110d5610d85565b5b835b818110156110ff57806110eb8882610bf6565b8452602084019350506020810190506110d8565b5050509392505050565b5f82601f83011261111d5761111c610c0a565b5b815161112d8482602086016110a1565b91505092915050565b5f6020828403121561114b5761114a610757565b5b5f82015167ffffffffffffffff8111156111685761116761075b565b5b61117484828501611109565b91505092915050565b5f6111878261075f565b91506111928361075f565b92508282019050808211156111aa576111a9610fe9565b5b92915050565b5f6111ba82610f8b565b91507f800000000000000000000000000000000000000000000000000000000000000082036111ec576111eb610fe9565b5b815f03905091905056fea26469706673582212204cef53b3510877986edf9282909dfd2cda4786ad54ca81db119b3d15bebfda9464736f6c634300081e0033","linkReferences":{}},"methodIdentifiers":{"getGroupStats(uint256)":"c9861dcb","getSettlementRate(uint256)":"703bea64","getTopSpenders(uint256,uint256)":"373a2129","getUserStats(address)":"4e43603a","splitChainCore()":"d9eb0aa2"},"id":0}