{"abi":[{"type":"constructor","inputs":[],"stateMutability":"nonpayable"},{"type":"function","name":"addExpense","inputs":[{"name":"groupId","type":"uint256","internalType":"uint256"},{"name":"description","type":"string","internalType":"string"},{"name":"totalAmount","type":"uint256","internalType":"uint256"},{"name":"participants","type":"address[]","internalType":"address[]"},{"name":"shares","type":"uint256[]","internalType":"uint256[]"},{"name":"tokenAddress","type":"address","internalType":"address"}],"outputs":[],"stateMutability":"payable"},{"type":"function","name":"addMember","inputs":[{"name":"groupId","type":"uint256","internalType":"uint256"},{"name":"member","type":"address","internalType":"address"}],"outputs":[],"stateMutability":"nonpayable"},{"type":"function","name":"createGroup","inputs":[{"name":"name","type":"string","internalType":"string"},{"name":"initialMembers","type":"address[]","internalType":"address[]"}],"outputs":[{"name":"","type":"uint256","internalType":"uint256"}],"stateMutability":"nonpayable"},{"type":"function","name":"emergencyWithdraw","inputs":[{"name":"tokenAddress","type":"address","internalType":"address"}],"outputs":[],"stateMutability":"nonpayable"},{"type":"function","name":"expenseCounter","inputs":[],"outputs":[{"name":"","type":"uint256","internalType":"uint256"}],"stateMutability":"view"},{"type":"function","name":"expenses","inputs":[{"name":"","type":"uint256","internalType":"uint256"}],"outputs":[{"name":"id","type":"uint256","internalType":"uint256"},{"name":"groupId","type":"uint256","internalType":"uint256"},{"name":"description","type":"string","internalType":"string"},{"name":"totalAmount","type":"uint256","internalType":"uint256"},{"name":"payer","type":"address","internalType":"address"},{"name":"tokenAddress","type":"address","internalType":"address"},{"name":"createdAt","type":"uint256","internalType":"uint256"},{"name":"isSettled","type":"bool","internalType":"bool"}],"stateMutability":"view"},{"type":"function","name":"feeRecipient","inputs":[],"outputs":[{"name":"","type":"address","internalType":"address"}],"stateMutability":"view"},{"type":"function","name":"getExpense","inputs":[{"name":"expenseId","type":"uint256","internalType":"uint256"}],"outputs":[{"name":"id","type":"uint256","internalType":"uint256"},{"name":"groupId","type":"uint256","internalType":"uint256"},{"name":"description","type":"string","internalType":"string"},{"name":"totalAmount","type":"uint256","internalType":"uint256"},{"name":"payer","type":"address","internalType":"address"},{"name":"participants","type":"address[]","internalType":"address[]"},{"name":"tokenAddress","type":"address","internalType":"address"},{"name":"createdAt","type":"uint256","internalType":"uint256"},{"name":"isSettled","type":"bool","internalType":"bool"}],"stateMutability":"view"},{"type":"function","name":"getExpenseShare","inputs":[{"name":"expenseId","type":"uint256","internalType":"uint256"},{"name":"participant","type":"address","internalType":"address"}],"outputs":[{"name":"","type":"uint256","internalType":"uint256"}],"stateMutability":"view"},{"type":"function","name":"getGroup","inputs":[{"name":"groupId","type":"uint256","internalType":"uint256"}],"outputs":[{"name":"id","type":"uint256","internalType":"uint256"},{"name":"name","type":"string","internalType":"string"},{"name":"creator","type":"address","internalType":"address"},{"name":"members","type":"address[]","internalType":"address[]"},{"name":"expenseCount","type":"uint256","internalType":"uint256"},{"name":"isActive","type":"bool","internalType":"bool"},{"name":"createdAt","type":"uint256","internalType":"uint256"}],"stateMutability":"view"},{"type":"function","name":"getGroupMembers","inputs":[{"name":"groupId","type":"uint256","internalType":"uint256"}],"outputs":[{"name":"","type":"address[]","internalType":"address[]"}],"stateMutability":"view"},{"type":"function","name":"getUserBalance","inputs":[{"name":"groupId","type":"uint256","internalType":"uint256"},{"name":"user","type":"address","internalType":"address"}],"outputs":[{"name":"","type":"int256","internalType":"int256"}],"stateMutability":"view"},{"type":"function","name":"getUserGroups","inputs":[{"name":"user","type":"address","internalType":"address"}],"outputs":[{"name":"","type":"uint256[]","internalType":"uint256[]"}],"stateMutability":"view"},{"type":"function","name":"groupCounter","inputs":[],"outputs":[{"name":"","type":"uint256","internalType":"uint256"}],"stateMutability":"view"},{"type":"function","name":"groups","inputs":[{"name":"","type":"uint256","internalType":"uint256"}],"outputs":[{"name":"id","type":"uint256","internalType":"uint256"},{"name":"name","type":"string","internalType":"string"},{"name":"creator","type":"address","internalType":"address"},{"name":"expenseCount","type":"uint256","internalType":"uint256"},{"name":"isActive","type":"bool","internalType":"bool"},{"name":"createdAt","type":"uint256","internalType":"uint256"}],"stateMutability":"view"},{"type":"function","name":"owner","inputs":[],"outputs":[{"name":"","type":"address","internalType":"address"}],"stateMutability":"view"},{"type":"function","name":"platformFee","inputs":[],"outputs":[{"name":"","type":"uint256","internalType":"uint256"}],"stateMutability":"view"},{"type":"function","name":"removeMember","inputs":[{"name":"groupId","type":"uint256","internalType":"uint256"},{"name":"member","type":"address","internalType":"address"}],"outputs":[],"stateMutability":"nonpayable"},{"type":"function","name":"renounceOwnership","inputs":[],"outputs":[],"stateMutability":"nonpayable"},{"type":"function","name":"setFeeRecipient","inputs":[{"name":"newRecipient","type":"address","internalType":"address"}],"outputs":[],"stateMutability":"nonpayable"},{"type":"function","name":"setPlatformFee","inputs":[{"name":"newFee","type":"uint256","internalType":"uint256"}],"outputs":[],"stateMutability":"nonpayable"},{"type":"function","name":"settleDebt","inputs":[{"name":"groupId","type":"uint256","internalType":"uint256"},{"name":"creditor","type":"address","internalType":"address"},{"name":"amount","type":"uint256","internalType":"uint256"},{"name":"tokenAddress","type":"address","internalType":"address"}],"outputs":[],"stateMutability":"payable"},{"type":"function","name":"transferOwnership","inputs":[{"name":"newOwner","type":"address","internalType":"address"}],"outputs":[],"stateMutability":"nonpayable"},{"type":"function","name":"userGroups","inputs":[{"name":"","type":"address","internalType":"address"},{"name":"","type":"uint256","internalType":"uint256"}],"outputs":[{"name":"","type":"uint256","internalType":"uint256"}],"stateMutability":"view"},{"type":"event","name":"DebtSettled","inputs":[{"name":"groupId","type":"uint256","indexed":true,"internalType":"uint256"},{"name":"debtor","type":"address","indexed":true,"internalType":"address"},{"name":"creditor","type":"address","indexed":true,"internalType":"address"},{"name":"amount","type":"uint256","indexed":false,"internalType":"uint256"}],"anonymous":false},{"type":"event","name":"ExpenseAdded","inputs":[{"name":"groupId","type":"uint256","indexed":true,"internalType":"uint256"},{"name":"expenseId","type":"uint256","indexed":true,"internalType":"uint256"},{"name":"payer","type":"address","indexed":true,"internalType":"address"},{"name":"amount","type":"uint256","indexed":false,"internalType":"uint256"}],"anonymous":false},{"type":"event","name":"ExpenseSettled","inputs":[{"name":"groupId","type":"uint256","indexed":true,"internalType":"uint256"},{"name":"expenseId","type":"uint256","indexed":true,"internalType":"uint256"},{"name":"settler","type":"address","indexed":true,"internalType":"address"},{"name":"amount","type":"uint256","indexed":false,"internalType":"uint256"}],"anonymous":false},{"type":"event","name":"GroupCreated","inputs":[{"name":"groupId","type":"uint256","indexed":true,"internalType":"uint256"},{"name":"creator","type":"address","indexed":true,"internalType":"address"},{"name":"name","type":"string","indexed":false,"internalType":"string"}],"anonymous":false},{"type":"event","name":"MemberAdded","inputs":[{"name":"groupId","type":"uint256","indexed":true,"internalType":"uint256"},{"name":"member","type":"address","indexed":true,"internalType":"address"}],"anonymous":false},{"type":"event","name":"MemberRemoved","inputs":[{"name":"groupId","type":"uint256","indexed":true,"internalType":"uint256"},{"name":"member","type":"address","indexed":true,"internalType":"address"}],"anonymous":false},{"type":"event","name":"OwnershipTransferred","inputs":[{"name":"previousOwner","type":"address","indexed":true,"internalType":"address"},{"name":"newOwner","type":"address","indexed":true,"internalType":"address"}],"anonymous":false}],"bytecode":{"object":"0x60806040526032600855348015610014575f5ffd5b5060015f8190555061003861002d61007d60201b60201c565b61008460201b60201c565b3360095f6101000a81548173ffffffffffffffffffffffffffffffffffffffff021916908373ffffffffffffffffffffffffffffffffffffffff160217905550610147565b5f33905090565b5f60015f9054906101000a900473ffffffffffffffffffffffffffffffffffffffff1690508160015f6101000a81548173ffffffffffffffffffffffffffffffffffffffff021916908373ffffffffffffffffffffffffffffffffffffffff1602179055508173ffffffffffffffffffffffffffffffffffffffff168173ffffffffffffffffffffffffffffffffffffffff167f8be0079c531659141344cd1fd0a4f28419497f9722a3daafe3b4186f6b6457e060405160405180910390a35050565b614eab806101545f395ff3fe60806040526004361061014a575f3560e01c8063735e5db6116100b5578063ceb606541161006e578063ceb60654146104ae578063cfbe575c146104f0578063d24924fe1461052c578063ddcad2ae14610556578063e74b981b14610580578063f2fde38b146105a85761014a565b8063735e5db61461035857806374d0a6761461039c5780638da5cb5b146103c457806396324bd4146103ee578063af4afe0a1461042f578063cdfb6cf3146104725761014a565b80634690484011610107578063469048401461025057806360a9e0971461027a5780636be7658b146102b65780636e63d322146102de5780636ff1c9bc1461031a578063715018a6146103425761014a565b806312e8e2c31461014e57806318f731a31461017657806326232a2e146101925780632df19cdd146101bc57806336cc8130146101d85780633da04e4a14610214575b5f5ffd5b348015610159575f5ffd5b50610174600480360381019061016f9190613119565b6105d0565b005b610190600480360381019061018b919061345e565b610627565b005b34801561019d575f5ffd5b506101a6610ca1565b6040516101b3919061354a565b60405180910390f35b6101d660048036038101906101d19190613563565b610ca7565b005b3480156101e3575f5ffd5b506101fe60048036038101906101f99190613119565b6113b8565b60405161020b919061367e565b60405180910390f35b34801561021f575f5ffd5b5061023a6004803603810190610235919061369e565b611457565b6040516102479190613780565b60405180910390f35b34801561025b575f5ffd5b506102646114ea565b60405161027191906137af565b60405180910390f35b348015610285575f5ffd5b506102a0600480360381019061029b91906137c8565b61150f565b6040516102ad919061354a565b60405180910390f35b3480156102c1575f5ffd5b506102dc60048036038101906102d79190613806565b61153a565b005b3480156102e9575f5ffd5b5061030460048036038101906102ff9190613806565b611755565b604051610311919061354a565b60405180910390f35b348015610325575f5ffd5b50610340600480360381019061033b919061369e565b6117ae565b005b34801561034d575f5ffd5b506103566118eb565b005b348015610363575f5ffd5b5061037e60048036038101906103799190613119565b6118fe565b604051610393999897969594939291906138be565b60405180910390f35b3480156103a7575f5ffd5b506103c260048036038101906103bd9190613806565b611ac0565b005b3480156103cf575f5ffd5b506103d8611d10565b6040516103e591906137af565b60405180910390f35b3480156103f9575f5ffd5b50610414600480360381019061040f9190613119565b611d38565b60405161042696959493929190613957565b60405180910390f35b34801561043a575f5ffd5b5061045560048036038101906104509190613119565b611e21565b6040516104699897969594939291906139bd565b60405180910390f35b34801561047d575f5ffd5b5061049860048036038101906104939190613806565b611f35565b6040516104a59190613a58565b60405180910390f35b3480156104b9575f5ffd5b506104d460048036038101906104cf9190613119565b611f8d565b6040516104e79796959493929190613a71565b60405180910390f35b3480156104fb575f5ffd5b5061051660048036038101906105119190613aec565b61211e565b604051610523919061354a565b60405180910390f35b348015610537575f5ffd5b5061054061235a565b60405161054d919061354a565b60405180910390f35b348015610561575f5ffd5b5061056a612360565b604051610577919061354a565b60405180910390f35b34801561058b575f5ffd5b506105a660048036038101906105a1919061369e565b612366565b005b3480156105b3575f5ffd5b506105ce60048036038101906105c9919061369e565b61241f565b005b6105d86124a1565b6103e881111561061d576040517f08c379a000000000000000000000000000000000000000000000000000000000815260040161061490613bac565b60405180910390fd5b8060088190555050565b855f60045f8381526020019081526020015f205f01540361067d576040517f08c379a000000000000000000000000000000000000000000000000000000000815260040161067490613c14565b60405180910390fd5b8660045f8281526020019081526020015f206004015f3373ffffffffffffffffffffffffffffffffffffffff1673ffffffffffffffffffffffffffffffffffffffff1681526020019081526020015f205f9054906101000a900460ff16610719576040517f08c379a000000000000000000000000000000000000000000000000000000000815260040161071090613c7c565b60405180910390fd5b61072161251f565b5f875111610764576040517f08c379a000000000000000000000000000000000000000000000000000000000815260040161075b90613ce4565b60405180910390fd5b5f86116107a6576040517f08c379a000000000000000000000000000000000000000000000000000000000815260040161079d90613d4c565b60405180910390fd5b5f8551116107e9576040517f08c379a00000000000000000000000000000000000000000000000000000000081526004016107e090613db4565b60405180910390fd5b835185511461082d576040517f08c379a000000000000000000000000000000000000000000000000000000000815260040161082490613e42565b60405180910390fd5b5f5f90505b85518110156108fd5760045f8a81526020019081526020015f206004015f87838151811061086357610862613e60565b5b602002602001015173ffffffffffffffffffffffffffffffffffffffff1673ffffffffffffffffffffffffffffffffffffffff1681526020019081526020015f205f9054906101000a900460ff166108f0576040517f08c379a00000000000000000000000000000000000000000000000000000000081526004016108e790613ed7565b60405180910390fd5b8080600101915050610832565b505f5f90505f5f90505b85518110156109455785818151811061092357610922613e60565b5b6020026020010151826109369190613f22565b91508080600101915050610907565b50868114610988576040517f08c379a000000000000000000000000000000000000000000000000000000000815260040161097f90613f9f565b60405180910390fd5b60035f81548092919061099a90613fbd565b91905055505f60035490505f60055f8381526020019081526020015f20905081815f01819055508a8160010181905550898160020190816109db9190614201565b5088816003018190555033816004015f6101000a81548173ffffffffffffffffffffffffffffffffffffffff021916908373ffffffffffffffffffffffffffffffffffffffff16021790555087816005019080519060200190610a3f929190613033565b5085816008015f6101000a81548173ffffffffffffffffffffffffffffffffffffffff021916908373ffffffffffffffffffffffffffffffffffffffff1602179055504281600901819055505f5f90505b8851811015610b1e57878181518110610aac57610aab613e60565b5b6020026020010151826006015f8b8481518110610acc57610acb613e60565b5b602002602001015173ffffffffffffffffffffffffffffffffffffffff1673ffffffffffffffffffffffffffffffffffffffff1681526020019081526020015f20819055508080600101915050610a90565b505f73ffffffffffffffffffffffffffffffffffffffff168673ffffffffffffffffffffffffffffffffffffffff1603610b9957883414610b94576040517f08c379a0000000000000000000000000000000000000000000000000000000008152600401610b8b9061431a565b60405180910390fd5b610c09565b5f3414610bdb576040517f08c379a0000000000000000000000000000000000000000000000000000000008152600401610bd2906143a8565b60405180910390fd5b610c0833308b8973ffffffffffffffffffffffffffffffffffffffff1661256c909392919063ffffffff16565b5b610c138b836125f5565b60045f8c81526020019081526020015f206006015f815480929190610c3790613fbd565b91905055503373ffffffffffffffffffffffffffffffffffffffff16828c7fcce5df0764f156d5d8021e18a302ab652c016fc057e00406d3b63a2e216060298c604051610c84919061354a565b60405180910390a4505050610c9761279a565b5050505050505050565b60085481565b835f60045f8381526020019081526020015f205f015403610cfd576040517f08c379a0000000000000000000000000000000000000000000000000000000008152600401610cf490613c14565b60405180910390fd5b8460045f8281526020019081526020015f206004015f3373ffffffffffffffffffffffffffffffffffffffff1673ffffffffffffffffffffffffffffffffffffffff1681526020019081526020015f205f9054906101000a900460ff16610d99576040517f08c379a0000000000000000000000000000000000000000000000000000000008152600401610d9090613c7c565b60405180910390fd5b610da161251f565b3373ffffffffffffffffffffffffffffffffffffffff168573ffffffffffffffffffffffffffffffffffffffff1603610e0f576040517f08c379a0000000000000000000000000000000000000000000000000000000008152600401610e0690614410565b60405180910390fd5b60045f8781526020019081526020015f206004015f8673ffffffffffffffffffffffffffffffffffffffff1673ffffffffffffffffffffffffffffffffffffffff1681526020019081526020015f205f9054906101000a900460ff16610eaa576040517f08c379a0000000000000000000000000000000000000000000000000000000008152600401610ea190614478565b60405180910390fd5b5f8411610eec576040517f08c379a0000000000000000000000000000000000000000000000000000000008152600401610ee390613d4c565b60405180910390fd5b5f60065f8881526020019081526020015f2090505f815f015f3373ffffffffffffffffffffffffffffffffffffffff1673ffffffffffffffffffffffffffffffffffffffff1681526020019081526020015f205490505f825f015f8973ffffffffffffffffffffffffffffffffffffffff1673ffffffffffffffffffffffffffffffffffffffff1681526020019081526020015f205490505f8212610fc6576040517f08c379a0000000000000000000000000000000000000000000000000000000008152600401610fbd906144e0565b60405180910390fd5b5f8113611008576040517f08c379a0000000000000000000000000000000000000000000000000000000008152600401610fff90614548565b60405180910390fd5b5f818361101490614566565b1061101f578161102a565b8261102990614566565b5b90508088111561106f576040517f08c379a0000000000000000000000000000000000000000000000000000000008152600401611066906145f6565b60405180910390fd5b5f6127106008548a6110819190614614565b61108b9190614682565b90505f818a61109a91906146b2565b90505f73ffffffffffffffffffffffffffffffffffffffff168973ffffffffffffffffffffffffffffffffffffffff16036111c857893414611111576040517f08c379a00000000000000000000000000000000000000000000000000000000081526004016111089061431a565b60405180910390fd5b8a73ffffffffffffffffffffffffffffffffffffffff166108fc8290811502906040515f60405180830381858888f19350505050158015611154573d5f5f3e3d5ffd5b505f8211156111c35760095f9054906101000a900473ffffffffffffffffffffffffffffffffffffffff1673ffffffffffffffffffffffffffffffffffffffff166108fc8390811502906040515f60405180830381858888f193505050501580156111c1573d5f5f3e3d5ffd5b505b611294565b5f341461120a576040517f08c379a0000000000000000000000000000000000000000000000000000000008152600401611201906143a8565b60405180910390fd5b5f89905061123b338d848473ffffffffffffffffffffffffffffffffffffffff1661256c909392919063ffffffff16565b5f831115611292576112913360095f9054906101000a900473ffffffffffffffffffffffffffffffffffffffff16858473ffffffffffffffffffffffffffffffffffffffff1661256c909392919063ffffffff16565b5b505b89865f015f3373ffffffffffffffffffffffffffffffffffffffff1673ffffffffffffffffffffffffffffffffffffffff1681526020019081526020015f205f8282546112e191906146e5565b9250508190555089865f015f8d73ffffffffffffffffffffffffffffffffffffffff1673ffffffffffffffffffffffffffffffffffffffff1681526020019081526020015f205f8282546113359190614726565b925050819055508a73ffffffffffffffffffffffffffffffffffffffff163373ffffffffffffffffffffffffffffffffffffffff168d7f16c014bb6d1c6cc25e4d9c2ffff2d5052bc083462038999100ead76edf97bee08d60405161139a919061354a565b60405180910390a45050505050506113b061279a565b505050505050565b606060045f8381526020019081526020015f2060030180548060200260200160405190810160405280929190818152602001828054801561144b57602002820191905f5260205f20905b815f9054906101000a900473ffffffffffffffffffffffffffffffffffffffff1673ffffffffffffffffffffffffffffffffffffffff1681526020019060010190808311611402575b50505050509050919050565b606060075f8373ffffffffffffffffffffffffffffffffffffffff1673ffffffffffffffffffffffffffffffffffffffff1681526020019081526020015f208054806020026020016040519081016040528092919081815260200182805480156114de57602002820191905f5260205f20905b8154815260200190600101908083116114ca575b50505050509050919050565b60095f9054906101000a900473ffffffffffffffffffffffffffffffffffffffff1681565b6007602052815f5260405f208181548110611528575f80fd5b905f5260205f20015f91509150505481565b815f60045f8381526020019081526020015f205f015403611590576040517f08c379a000000000000000000000000000000000000000000000000000000000815260040161158790613c14565b60405180910390fd5b60045f8481526020019081526020015f206002015f9054906101000a900473ffffffffffffffffffffffffffffffffffffffff1673ffffffffffffffffffffffffffffffffffffffff163373ffffffffffffffffffffffffffffffffffffffff16148061162857508173ffffffffffffffffffffffffffffffffffffffff163373ffffffffffffffffffffffffffffffffffffffff16145b611667576040517f08c379a000000000000000000000000000000000000000000000000000000000815260040161165e906147d6565b60405180910390fd5b60045f8481526020019081526020015f206004015f8373ffffffffffffffffffffffffffffffffffffffff1673ffffffffffffffffffffffffffffffffffffffff1681526020019081526020015f205f9054906101000a900460ff16611702576040517f08c379a00000000000000000000000000000000000000000000000000000000081526004016116f99061483e565b60405180910390fd5b61170c83836127a3565b8173ffffffffffffffffffffffffffffffffffffffff16837f1c4c9d2e56d0635d11bc47c997c6909a0d7061f55cbb8f4b27386db37553191c60405160405180910390a3505050565b5f60055f8481526020019081526020015f206006015f8373ffffffffffffffffffffffffffffffffffffffff1673ffffffffffffffffffffffffffffffffffffffff1681526020019081526020015f2054905092915050565b6117b66124a1565b5f73ffffffffffffffffffffffffffffffffffffffff168173ffffffffffffffffffffffffffffffffffffffff1603611839576117f1611d10565b73ffffffffffffffffffffffffffffffffffffffff166108fc4790811502906040515f60405180830381858888f19350505050158015611833573d5f5f3e3d5ffd5b506118e8565b5f8190506118e6611848611d10565b8273ffffffffffffffffffffffffffffffffffffffff166370a08231306040518263ffffffff1660e01b815260040161188191906137af565b602060405180830381865afa15801561189c573d5f5f3e3d5ffd5b505050506040513d601f19601f820116820180604052508101906118c09190614870565b8373ffffffffffffffffffffffffffffffffffffffff16612ace9092919063ffffffff16565b505b50565b6118f36124a1565b6118fc5f612b54565b565b5f5f60605f5f60605f5f5f5f60055f8c81526020019081526020015f209050805f01548160010154826002018360030154846004015f9054906101000a900473ffffffffffffffffffffffffffffffffffffffff1685600501866008015f9054906101000a900473ffffffffffffffffffffffffffffffffffffffff16876009015488600a015f9054906101000a900460ff1686805461199d90614031565b80601f01602080910402602001604051908101604052809291908181526020018280546119c990614031565b8015611a145780601f106119eb57610100808354040283529160200191611a14565b820191905f5260205f20905b8154815290600101906020018083116119f757829003601f168201915b5050505050965083805480602002602001604051908101604052809291908181526020018280548015611a9957602002820191905f5260205f20905b815f9054906101000a900473ffffffffffffffffffffffffffffffffffffffff1673ffffffffffffffffffffffffffffffffffffffff1681526020019060010190808311611a50575b50505050509350995099509950995099509950995099509950509193959799909294969850565b815f60045f8381526020019081526020015f205f015403611b16576040517f08c379a0000000000000000000000000000000000000000000000000000000008152600401611b0d90613c14565b60405180910390fd5b8260045f8281526020019081526020015f206004015f3373ffffffffffffffffffffffffffffffffffffffff1673ffffffffffffffffffffffffffffffffffffffff1681526020019081526020015f205f9054906101000a900460ff16611bb2576040517f08c379a0000000000000000000000000000000000000000000000000000000008152600401611ba990613c7c565b60405180910390fd5b5f73ffffffffffffffffffffffffffffffffffffffff168373ffffffffffffffffffffffffffffffffffffffff1603611c20576040517f08c379a0000000000000000000000000000000000000000000000000000000008152600401611c17906148e5565b60405180910390fd5b60045f8581526020019081526020015f206004015f8473ffffffffffffffffffffffffffffffffffffffff1673ffffffffffffffffffffffffffffffffffffffff1681526020019081526020015f205f9054906101000a900460ff1615611cbc576040517f08c379a0000000000000000000000000000000000000000000000000000000008152600401611cb39061494d565b60405180910390fd5b611cc68484612c17565b8273ffffffffffffffffffffffffffffffffffffffff16847ff328ac0f8bcae00933fe87ba0aa2d0d505c1df94bc9c1aa05b8441c28b74032c60405160405180910390a350505050565b5f60015f9054906101000a900473ffffffffffffffffffffffffffffffffffffffff16905090565b6004602052805f5260405f205f91509050805f015490806001018054611d5d90614031565b80601f0160208091040260200160405190810160405280929190818152602001828054611d8990614031565b8015611dd45780601f10611dab57610100808354040283529160200191611dd4565b820191905f5260205f20905b815481529060010190602001808311611db757829003601f168201915b505050505090806002015f9054906101000a900473ffffffffffffffffffffffffffffffffffffffff1690806006015490806007015f9054906101000a900460ff16908060080154905086565b6005602052805f5260405f205f91509050805f015490806001015490806002018054611e4c90614031565b80601f0160208091040260200160405190810160405280929190818152602001828054611e7890614031565b8015611ec35780601f10611e9a57610100808354040283529160200191611ec3565b820191905f5260205f20905b815481529060010190602001808311611ea657829003601f168201915b505050505090806003015490806004015f9054906101000a900473ffffffffffffffffffffffffffffffffffffffff1690806008015f9054906101000a900473ffffffffffffffffffffffffffffffffffffffff169080600901549080600a015f9054906101000a900460ff16905088565b5f60065f8481526020019081526020015f205f015f8373ffffffffffffffffffffffffffffffffffffffff1673ffffffffffffffffffffffffffffffffffffffff1681526020019081526020015f2054905092915050565b5f60605f60605f5f5f5f60045f8a81526020019081526020015f209050805f015481600101826002015f9054906101000a900473ffffffffffffffffffffffffffffffffffffffff16836003018460060154856007015f9054906101000a900460ff16866008015485805461200190614031565b80601f016020809104026020016040519081016040528092919081815260200182805461202d90614031565b80156120785780601f1061204f57610100808354040283529160200191612078565b820191905f5260205f20905b81548152906001019060200180831161205b57829003601f168201915b50505050509550838054806020026020016040519081016040528092919081815260200182805480156120fd57602002820191905f5260205f20905b815f9054906101000a900473ffffffffffffffffffffffffffffffffffffffff1673ffffffffffffffffffffffffffffffffffffffff16815260200190600101908083116120b4575b50505050509350975097509750975097509750975050919395979092949650565b5f5f835111612162576040517f08c379a0000000000000000000000000000000000000000000000000000000008152600401612159906149b5565b60405180910390fd5b60025f81548092919061217490613fbd565b91905055505f60025490505f60045f8381526020019081526020015f20905081815f0181905550848160010190816121ac9190614201565b5033816002015f6101000a81548173ffffffffffffffffffffffffffffffffffffffff021916908373ffffffffffffffffffffffffffffffffffffffff1602179055506001816007015f6101000a81548160ff02191690831515021790555042816008018190555061221e8233612c17565b5f5f90505b84518110156122ff573373ffffffffffffffffffffffffffffffffffffffff1685828151811061225657612255613e60565b5b602002602001015173ffffffffffffffffffffffffffffffffffffffff16141580156122c857505f73ffffffffffffffffffffffffffffffffffffffff168582815181106122a7576122a6613e60565b5b602002602001015173ffffffffffffffffffffffffffffffffffffffff1614155b156122f2576122f1838683815181106122e4576122e3613e60565b5b6020026020010151612c17565b5b8080600101915050612223565b503373ffffffffffffffffffffffffffffffffffffffff16827f4354295f5d98820e66a770bd58cf23606ab255dd9dc2daf870fab38ecbc3e7e08760405161234791906149d3565b60405180910390a3819250505092915050565b60025481565b60035481565b61236e6124a1565b5f73ffffffffffffffffffffffffffffffffffffffff168173ffffffffffffffffffffffffffffffffffffffff16036123dc576040517f08c379a00000000000000000000000000000000000000000000000000000000081526004016123d390614a3d565b60405180910390fd5b8060095f6101000a81548173ffffffffffffffffffffffffffffffffffffffff021916908373ffffffffffffffffffffffffffffffffffffffff16021790555050565b6124276124a1565b5f73ffffffffffffffffffffffffffffffffffffffff168173ffffffffffffffffffffffffffffffffffffffff1603612495576040517f08c379a000000000000000000000000000000000000000000000000000000000815260040161248c90614acb565b60405180910390fd5b61249e81612b54565b50565b6124a9612da1565b73ffffffffffffffffffffffffffffffffffffffff166124c7611d10565b73ffffffffffffffffffffffffffffffffffffffff161461251d576040517f08c379a000000000000000000000000000000000000000000000000000000000815260040161251490614b33565b60405180910390fd5b565b60025f5403612563576040517f08c379a000000000000000000000000000000000000000000000000000000000815260040161255a90614b9b565b60405180910390fd5b60025f81905550565b6125ef846323b872dd60e01b85858560405160240161258d93929190614bb9565b604051602081830303815290604052907bffffffffffffffffffffffffffffffffffffffffffffffffffffffff19166020820180517bffffffffffffffffffffffffffffffffffffffffffffffffffffffff8381831617835250505050612da8565b50505050565b5f60055f8381526020019081526020015f2090505f60065f8581526020019081526020015f2090508160030154815f015f846004015f9054906101000a900473ffffffffffffffffffffffffffffffffffffffff1673ffffffffffffffffffffffffffffffffffffffff1673ffffffffffffffffffffffffffffffffffffffff1681526020019081526020015f205f82825461269191906146e5565b925050819055505f5f90505b8260050180549050811015612793575f8360050182815481106126c3576126c2613e60565b5b905f5260205f20015f9054906101000a900473ffffffffffffffffffffffffffffffffffffffff1690505f846006015f8373ffffffffffffffffffffffffffffffffffffffff1673ffffffffffffffffffffffffffffffffffffffff1681526020019081526020015f2054905080845f015f8473ffffffffffffffffffffffffffffffffffffffff1673ffffffffffffffffffffffffffffffffffffffff1681526020019081526020015f205f82825461277d9190614726565b925050819055505050808060010191505061269d565b5050505050565b60015f81905550565b5f60045f8481526020019081526020015f2090505f816005015f8473ffffffffffffffffffffffffffffffffffffffff1673ffffffffffffffffffffffffffffffffffffffff1681526020019081526020015f205490505f6001836003018054905061280f91906146b2565b90508082146128fb575f83600301828154811061282f5761282e613e60565b5b905f5260205f20015f9054906101000a900473ffffffffffffffffffffffffffffffffffffffff169050808460030184815481106128705761286f613e60565b5b905f5260205f20015f6101000a81548173ffffffffffffffffffffffffffffffffffffffff021916908373ffffffffffffffffffffffffffffffffffffffff16021790555082846005015f8373ffffffffffffffffffffffffffffffffffffffff1673ffffffffffffffffffffffffffffffffffffffff1681526020019081526020015f2081905550505b8260030180548061290f5761290e614bee565b5b600190038181905f5260205f20015f6101000a81549073ffffffffffffffffffffffffffffffffffffffff02191690559055826004015f8573ffffffffffffffffffffffffffffffffffffffff1673ffffffffffffffffffffffffffffffffffffffff1681526020019081526020015f205f6101000a81549060ff0219169055826005015f8573ffffffffffffffffffffffffffffffffffffffff1673ffffffffffffffffffffffffffffffffffffffff1681526020019081526020015f205f90555f60075f8673ffffffffffffffffffffffffffffffffffffffff1673ffffffffffffffffffffffffffffffffffffffff1681526020019081526020015f2090505f5f90505b8180549050811015612ac55786828281548110612a3657612a35613e60565b5b905f5260205f20015403612ab8578160018380549050612a5691906146b2565b81548110612a6757612a66613e60565b5b905f5260205f200154828281548110612a8357612a82613e60565b5b905f5260205f20018190555081805480612aa057612a9f614bee565b5b600190038181905f5260205f20015f90559055612ac5565b8080600101915050612a16565b50505050505050565b612b4f8363a9059cbb60e01b8484604051602401612aed929190614c1b565b604051602081830303815290604052907bffffffffffffffffffffffffffffffffffffffffffffffffffffffff19166020820180517bffffffffffffffffffffffffffffffffffffffffffffffffffffffff8381831617835250505050612da8565b505050565b5f60015f9054906101000a900473ffffffffffffffffffffffffffffffffffffffff1690508160015f6101000a81548173ffffffffffffffffffffffffffffffffffffffff021916908373ffffffffffffffffffffffffffffffffffffffff1602179055508173ffffffffffffffffffffffffffffffffffffffff168173ffffffffffffffffffffffffffffffffffffffff167f8be0079c531659141344cd1fd0a4f28419497f9722a3daafe3b4186f6b6457e060405160405180910390a35050565b5f60045f8481526020019081526020015f2090508060030182908060018154018082558091505060019003905f5260205f20015f9091909190916101000a81548173ffffffffffffffffffffffffffffffffffffffff021916908373ffffffffffffffffffffffffffffffffffffffff1602179055506001816004015f8473ffffffffffffffffffffffffffffffffffffffff1673ffffffffffffffffffffffffffffffffffffffff1681526020019081526020015f205f6101000a81548160ff02191690831515021790555060018160030180549050612cf891906146b2565b816005015f8473ffffffffffffffffffffffffffffffffffffffff1673ffffffffffffffffffffffffffffffffffffffff1681526020019081526020015f208190555060075f8373ffffffffffffffffffffffffffffffffffffffff1673ffffffffffffffffffffffffffffffffffffffff1681526020019081526020015f2083908060018154018082558091505060019003905f5260205f20015f9091909190915055505050565b5f33905090565b5f612e09826040518060400160405280602081526020017f5361666545524332303a206c6f772d6c6576656c2063616c6c206661696c65648152508573ffffffffffffffffffffffffffffffffffffffff16612e6e9092919063ffffffff16565b90505f81511480612e2a575080806020019051810190612e299190614c6c565b5b612e69576040517f08c379a0000000000000000000000000000000000000000000000000000000008152600401612e6090614d07565b60405180910390fd5b505050565b6060612e7c84845f85612e85565b90509392505050565b606082471015612eca576040517f08c379a0000000000000000000000000000000000000000000000000000000008152600401612ec190614d95565b60405180910390fd5b5f5f8673ffffffffffffffffffffffffffffffffffffffff168587604051612ef29190614df7565b5f6040518083038185875af1925050503d805f8114612f2c576040519150601f19603f3d011682016040523d82523d5f602084013e612f31565b606091505b5091509150612f4287838387612f4e565b92505050949350505050565b60608315612faf575f835103612fa757612f6785612fc2565b612fa6576040517f08c379a0000000000000000000000000000000000000000000000000000000008152600401612f9d90614e57565b60405180910390fd5b5b829050612fba565b612fb98383612fe4565b5b949350505050565b5f5f8273ffffffffffffffffffffffffffffffffffffffff163b119050919050565b5f82511115612ff65781518083602001fd5b806040517f08c379a000000000000000000000000000000000000000000000000000000000815260040161302a91906149d3565b60405180910390fd5b828054828255905f5260205f209081019282156130a9579160200282015b828111156130a8578251825f6101000a81548173ffffffffffffffffffffffffffffffffffffffff021916908373ffffffffffffffffffffffffffffffffffffffff16021790555091602001919060010190613051565b5b5090506130b691906130ba565b5090565b5b808211156130d1575f815f9055506001016130bb565b5090565b5f604051905090565b5f5ffd5b5f5ffd5b5f819050919050565b6130f8816130e6565b8114613102575f5ffd5b50565b5f81359050613113816130ef565b92915050565b5f6020828403121561312e5761312d6130de565b5b5f61313b84828501613105565b91505092915050565b5f5ffd5b5f5ffd5b5f601f19601f8301169050919050565b7f4e487b71000000000000000000000000000000000000000000000000000000005f52604160045260245ffd5b6131928261314c565b810181811067ffffffffffffffff821117156131b1576131b061315c565b5b80604052505050565b5f6131c36130d5565b90506131cf8282613189565b919050565b5f67ffffffffffffffff8211156131ee576131ed61315c565b5b6131f78261314c565b9050602081019050919050565b828183375f83830152505050565b5f61322461321f846131d4565b6131ba565b9050828152602081018484840111156132405761323f613148565b5b61324b848285613204565b509392505050565b5f82601f83011261326757613266613144565b5b8135613277848260208601613212565b91505092915050565b5f67ffffffffffffffff82111561329a5761329961315c565b5b602082029050602081019050919050565b5f5ffd5b5f73ffffffffffffffffffffffffffffffffffffffff82169050919050565b5f6132d8826132af565b9050919050565b6132e8816132ce565b81146132f2575f5ffd5b50565b5f81359050613303816132df565b92915050565b5f61331b61331684613280565b6131ba565b9050808382526020820190506020840283018581111561333e5761333d6132ab565b5b835b81811015613367578061335388826132f5565b845260208401935050602081019050613340565b5050509392505050565b5f82601f83011261338557613384613144565b5b8135613395848260208601613309565b91505092915050565b5f67ffffffffffffffff8211156133b8576133b761315c565b5b602082029050602081019050919050565b5f6133db6133d68461339e565b6131ba565b905080838252602082019050602084028301858111156133fe576133fd6132ab565b5b835b8181101561342757806134138882613105565b845260208401935050602081019050613400565b5050509392505050565b5f82601f83011261344557613444613144565b5b81356134558482602086016133c9565b91505092915050565b5f5f5f5f5f5f60c08789031215613478576134776130de565b5b5f61348589828a01613105565b965050602087013567ffffffffffffffff8111156134a6576134a56130e2565b5b6134b289828a01613253565b95505060406134c389828a01613105565b945050606087013567ffffffffffffffff8111156134e4576134e36130e2565b5b6134f089828a01613371565b935050608087013567ffffffffffffffff811115613511576135106130e2565b5b61351d89828a01613431565b92505060a061352e89828a016132f5565b9150509295509295509295565b613544816130e6565b82525050565b5f60208201905061355d5f83018461353b565b92915050565b5f5f5f5f6080858703121561357b5761357a6130de565b5b5f61358887828801613105565b9450506020613599878288016132f5565b93505060406135aa87828801613105565b92505060606135bb878288016132f5565b91505092959194509250565b5f81519050919050565b5f82825260208201905092915050565b5f819050602082019050919050565b6135f9816132ce565b82525050565b5f61360a83836135f0565b60208301905092915050565b5f602082019050919050565b5f61362c826135c7565b61363681856135d1565b9350613641836135e1565b805f5b8381101561367157815161365888826135ff565b975061366383613616565b925050600181019050613644565b5085935050505092915050565b5f6020820190508181035f8301526136968184613622565b905092915050565b5f602082840312156136b3576136b26130de565b5b5f6136c0848285016132f5565b91505092915050565b5f81519050919050565b5f82825260208201905092915050565b5f819050602082019050919050565b6136fb816130e6565b82525050565b5f61370c83836136f2565b60208301905092915050565b5f602082019050919050565b5f61372e826136c9565b61373881856136d3565b9350613743836136e3565b805f5b8381101561377357815161375a8882613701565b975061376583613718565b925050600181019050613746565b5085935050505092915050565b5f6020820190508181035f8301526137988184613724565b905092915050565b6137a9816132ce565b82525050565b5f6020820190506137c25f8301846137a0565b92915050565b5f5f604083850312156137de576137dd6130de565b5b5f6137eb858286016132f5565b92505060206137fc85828601613105565b9150509250929050565b5f5f6040838503121561381c5761381b6130de565b5b5f61382985828601613105565b925050602061383a858286016132f5565b9150509250929050565b5f81519050919050565b5f82825260208201905092915050565b8281835e5f83830152505050565b5f61387682613844565b613880818561384e565b935061389081856020860161385e565b6138998161314c565b840191505092915050565b5f8115159050919050565b6138b8816138a4565b82525050565b5f610120820190506138d25f83018c61353b565b6138df602083018b61353b565b81810360408301526138f1818a61386c565b9050613900606083018961353b565b61390d60808301886137a0565b81810360a083015261391f8187613622565b905061392e60c08301866137a0565b61393b60e083018561353b565b6139496101008301846138af565b9a9950505050505050505050565b5f60c08201905061396a5f83018961353b565b818103602083015261397c818861386c565b905061398b60408301876137a0565b613998606083018661353b565b6139a560808301856138af565b6139b260a083018461353b565b979650505050505050565b5f610100820190506139d15f83018b61353b565b6139de602083018a61353b565b81810360408301526139f0818961386c565b90506139ff606083018861353b565b613a0c60808301876137a0565b613a1960a08301866137a0565b613a2660c083018561353b565b613a3360e08301846138af565b9998505050505050505050565b5f819050919050565b613a5281613a40565b82525050565b5f602082019050613a6b5f830184613a49565b92915050565b5f60e082019050613a845f83018a61353b565b8181036020830152613a96818961386c565b9050613aa560408301886137a0565b8181036060830152613ab78187613622565b9050613ac6608083018661353b565b613ad360a08301856138af565b613ae060c083018461353b565b98975050505050505050565b5f5f60408385031215613b0257613b016130de565b5b5f83013567ffffffffffffffff811115613b1f57613b1e6130e2565b5b613b2b85828601613253565b925050602083013567ffffffffffffffff811115613b4c57613b4b6130e2565b5b613b5885828601613371565b9150509250929050565b7f4665652063616e6e6f74206578636565642031302500000000000000000000005f82015250565b5f613b9660158361384e565b9150613ba182613b62565b602082019050919050565b5f6020820190508181035f830152613bc381613b8a565b9050919050565b7f47726f757020646f6573206e6f742065786973740000000000000000000000005f82015250565b5f613bfe60148361384e565b9150613c0982613bca565b602082019050919050565b5f6020820190508181035f830152613c2b81613bf2565b9050919050565b7f4e6f7420612067726f7570206d656d62657200000000000000000000000000005f82015250565b5f613c6660128361384e565b9150613c7182613c32565b602082019050919050565b5f6020820190508181035f830152613c9381613c5a565b9050919050565b7f4465736372697074696f6e2063616e6e6f7420626520656d70747900000000005f82015250565b5f613cce601b8361384e565b9150613cd982613c9a565b602082019050919050565b5f6020820190508181035f830152613cfb81613cc2565b9050919050565b7f416d6f756e74206d7573742062652067726561746572207468616e20300000005f82015250565b5f613d36601d8361384e565b9150613d4182613d02565b602082019050919050565b5f6020820190508181035f830152613d6381613d2a565b9050919050565b7f4d7573742068617665207061727469636970616e7473000000000000000000005f82015250565b5f613d9e60168361384e565b9150613da982613d6a565b602082019050919050565b5f6020820190508181035f830152613dcb81613d92565b9050919050565b7f5061727469636970616e747320616e6420736861726573206c656e677468206d5f8201527f69736d6174636800000000000000000000000000000000000000000000000000602082015250565b5f613e2c60278361384e565b9150613e3782613dd2565b604082019050919050565b5f6020820190508181035f830152613e5981613e20565b9050919050565b7f4e487b71000000000000000000000000000000000000000000000000000000005f52603260045260245ffd5b7f5061727469636970616e74206e6f7420696e2067726f757000000000000000005f82015250565b5f613ec160188361384e565b9150613ecc82613e8d565b602082019050919050565b5f6020820190508181035f830152613eee81613eb5565b9050919050565b7f4e487b71000000000000000000000000000000000000000000000000000000005f52601160045260245ffd5b5f613f2c826130e6565b9150613f37836130e6565b9250828201905080821115613f4f57613f4e613ef5565b5b92915050565b7f536861726573206d7573742073756d20746f20746f74616c20616d6f756e74005f82015250565b5f613f89601f8361384e565b9150613f9482613f55565b602082019050919050565b5f6020820190508181035f830152613fb681613f7d565b9050919050565b5f613fc7826130e6565b91507fffffffffffffffffffffffffffffffffffffffffffffffffffffffffffffffff8203613ff957613ff8613ef5565b5b600182019050919050565b7f4e487b71000000000000000000000000000000000000000000000000000000005f52602260045260245ffd5b5f600282049050600182168061404857607f821691505b60208210810361405b5761405a614004565b5b50919050565b5f819050815f5260205f209050919050565b5f6020601f8301049050919050565b5f82821b905092915050565b5f600883026140bd7fffffffffffffffffffffffffffffffffffffffffffffffffffffffffffffffff82614082565b6140c78683614082565b95508019841693508086168417925050509392505050565b5f819050919050565b5f6141026140fd6140f8846130e6565b6140df565b6130e6565b9050919050565b5f819050919050565b61411b836140e8565b61412f61412782614109565b84845461408e565b825550505050565b5f5f905090565b614146614137565b614151818484614112565b505050565b5b81811015614174576141695f8261413e565b600181019050614157565b5050565b601f8211156141b95761418a81614061565b61419384614073565b810160208510156141a2578190505b6141b66141ae85614073565b830182614156565b50505b505050565b5f82821c905092915050565b5f6141d95f19846008026141be565b1980831691505092915050565b5f6141f183836141ca565b9150826002028217905092915050565b61420a82613844565b67ffffffffffffffff8111156142235761422261315c565b5b61422d8254614031565b614238828285614178565b5f60209050601f831160018114614269575f8415614257578287015190505b61426185826141e6565b8655506142c8565b601f19841661427786614061565b5f5b8281101561429e57848901518255600182019150602085019450602081019050614279565b868310156142bb57848901516142b7601f8916826141ca565b8355505b6001600288020188555050505b505050505050565b7f496e636f72726563742045544820616d6f756e740000000000000000000000005f82015250565b5f61430460148361384e565b915061430f826142d0565b602082019050919050565b5f6020820190508181035f830152614331816142f8565b9050919050565b7f455448206e6f7420616363657074656420666f7220746f6b656e207061796d655f8201527f6e74730000000000000000000000000000000000000000000000000000000000602082015250565b5f61439260238361384e565b915061439d82614338565b604082019050919050565b5f6020820190508181035f8301526143bf81614386565b9050919050565b7f43616e6e6f7420736574746c65207769746820796f757273656c6600000000005f82015250565b5f6143fa601b8361384e565b9150614405826143c6565b602082019050919050565b5f6020820190508181035f830152614427816143ee565b9050919050565b7f4372656469746f72206e6f7420696e2067726f757000000000000000000000005f82015250565b5f61446260158361384e565b915061446d8261442e565b602082019050919050565b5f6020820190508181035f83015261448f81614456565b9050919050565b7f596f7520646f6e2774206f7765206d6f6e6579000000000000000000000000005f82015250565b5f6144ca60138361384e565b91506144d582614496565b602082019050919050565b5f6020820190508181035f8301526144f7816144be565b9050919050565b7f4372656469746f72206973206e6f74206f776564206d6f6e65790000000000005f82015250565b5f614532601a8361384e565b915061453d826144fe565b602082019050919050565b5f6020820190508181035f83015261455f81614526565b9050919050565b5f61457082613a40565b91507f800000000000000000000000000000000000000000000000000000000000000082036145a2576145a1613ef5565b5b815f039050919050565b7f536574746c656d656e7420616d6f756e7420746f6f20686967680000000000005f82015250565b5f6145e0601a8361384e565b91506145eb826145ac565b602082019050919050565b5f6020820190508181035f83015261460d816145d4565b9050919050565b5f61461e826130e6565b9150614629836130e6565b9250828202614637816130e6565b9150828204841483151761464e5761464d613ef5565b5b5092915050565b7f4e487b71000000000000000000000000000000000000000000000000000000005f52601260045260245ffd5b5f61468c826130e6565b9150614697836130e6565b9250826146a7576146a6614655565b5b828204905092915050565b5f6146bc826130e6565b91506146c7836130e6565b92508282039050818111156146df576146de613ef5565b5b92915050565b5f6146ef82613a40565b91506146fa83613a40565b92508282019050828112155f8312168382125f8412151617156147205761471f613ef5565b5b92915050565b5f61473082613a40565b915061473b83613a40565b925082820390508181125f8412168282135f8512151617156147605761475f613ef5565b5b92915050565b7f4f6e6c792063726561746f72206f72206d656d6265722063616e2072656d6f765f8201527f6500000000000000000000000000000000000000000000000000000000000000602082015250565b5f6147c060218361384e565b91506147cb82614766565b604082019050919050565b5f6020820190508181035f8301526147ed816147b4565b9050919050565b7f4e6f742061206d656d62657200000000000000000000000000000000000000005f82015250565b5f614828600c8361384e565b9150614833826147f4565b602082019050919050565b5f6020820190508181035f8301526148558161481c565b9050919050565b5f8151905061486a816130ef565b92915050565b5f60208284031215614885576148846130de565b5b5f6148928482850161485c565b91505092915050565b7f496e76616c6964206d656d6265722061646472657373000000000000000000005f82015250565b5f6148cf60168361384e565b91506148da8261489b565b602082019050919050565b5f6020820190508181035f8301526148fc816148c3565b9050919050565b7f416c72656164792061206d656d626572000000000000000000000000000000005f82015250565b5f61493760108361384e565b915061494282614903565b602082019050919050565b5f6020820190508181035f8301526149648161492b565b9050919050565b7f47726f7570206e616d652063616e6e6f7420626520656d7074790000000000005f82015250565b5f61499f601a8361384e565b91506149aa8261496b565b602082019050919050565b5f6020820190508181035f8301526149cc81614993565b9050919050565b5f6020820190508181035f8301526149eb818461386c565b905092915050565b7f496e76616c696420726563697069656e740000000000000000000000000000005f82015250565b5f614a2760118361384e565b9150614a32826149f3565b602082019050919050565b5f6020820190508181035f830152614a5481614a1b565b9050919050565b7f4f776e61626c653a206e6577206f776e657220697320746865207a65726f20615f8201527f6464726573730000000000000000000000000000000000000000000000000000602082015250565b5f614ab560268361384e565b9150614ac082614a5b565b604082019050919050565b5f6020820190508181035f830152614ae281614aa9565b9050919050565b7f4f776e61626c653a2063616c6c6572206973206e6f7420746865206f776e65725f82015250565b5f614b1d60208361384e565b9150614b2882614ae9565b602082019050919050565b5f6020820190508181035f830152614b4a81614b11565b9050919050565b7f5265656e7472616e637947756172643a207265656e7472616e742063616c6c005f82015250565b5f614b85601f8361384e565b9150614b9082614b51565b602082019050919050565b5f6020820190508181035f830152614bb281614b79565b9050919050565b5f606082019050614bcc5f8301866137a0565b614bd960208301856137a0565b614be6604083018461353b565b949350505050565b7f4e487b71000000000000000000000000000000000000000000000000000000005f52603160045260245ffd5b5f604082019050614c2e5f8301856137a0565b614c3b602083018461353b565b9392505050565b614c4b816138a4565b8114614c55575f5ffd5b50565b5f81519050614c6681614c42565b92915050565b5f60208284031215614c8157614c806130de565b5b5f614c8e84828501614c58565b91505092915050565b7f5361666545524332303a204552433230206f7065726174696f6e20646964206e5f8201527f6f74207375636365656400000000000000000000000000000000000000000000602082015250565b5f614cf1602a8361384e565b9150614cfc82614c97565b604082019050919050565b5f6020820190508181035f830152614d1e81614ce5565b9050919050565b7f416464726573733a20696e73756666696369656e742062616c616e636520666f5f8201527f722063616c6c0000000000000000000000000000000000000000000000000000602082015250565b5f614d7f60268361384e565b9150614d8a82614d25565b604082019050919050565b5f6020820190508181035f830152614dac81614d73565b9050919050565b5f81519050919050565b5f81905092915050565b5f614dd182614db3565b614ddb8185614dbd565b9350614deb81856020860161385e565b80840191505092915050565b5f614e028284614dc7565b915081905092915050565b7f416464726573733a2063616c6c20746f206e6f6e2d636f6e74726163740000005f82015250565b5f614e41601d8361384e565b9150614e4c82614e0d565b602082019050919050565b5f6020820190508181035f830152614e6e81614e35565b905091905056fea2646970667358221220c7e67c100a0aef1b6c7ec540d8798357a09a3bc4c6599c27dc4ced3c1f33241b64736f6c634300081e0033","linkReferences":{}},"methodIdentifiers":{"addExpense(uint256,string,uint256,address[],uint256[],address)":"18f731a3","addMember(uint256,address)":"74d0a676","createGroup(string,address[])":"cfbe575c","emergencyWithdraw(address)":"6ff1c9bc","expenseCounter()":"ddcad2ae","expenses(uint256)":"af4afe0a","feeRecipient()":"46904840","getExpense(uint256)":"735e5db6","getExpenseShare(uint256,address)":"6e63d322","getGroup(uint256)":"ceb60654","getGroupMembers(uint256)":"36cc8130","getUserBalance(uint256,address)":"cdfb6cf3","getUserGroups(address)":"3da04e4a","groupCounter()":"d24924fe","groups(uint256)":"96324bd4","owner()":"8da5cb5b","platformFee()":"26232a2e","removeMember(uint256,address)":"6be7658b","renounceOwnership()":"715018a6","setFeeRecipient(address)":"e74b981b","setPlatformFee(uint256)":"12e8e2c3","settleDebt(uint256,address,uint256,address)":"2df19cdd","transferOwnership(address)":"f2fde38b","userGroups(address,uint256)":"60a9e097"},"id":1}