{"abi":[{"type":"constructor","inputs":[],"stateMutability":"nonpayable"},{"type":"function","name":"addExpense","inputs":[{"name":"groupId","type":"uint256","internalType":"uint256"},{"name":"description","type":"string","internalType":"string"},{"name":"totalAmount","type":"uint256","internalType":"uint256"},{"name":"participants","type":"address[]","internalType":"address[]"},{"name":"shares","type":"uint256[]","internalType":"uint256[]"},{"name":"tokenAddress","type":"address","internalType":"address"}],"outputs":[],"stateMutability":"payable"},{"type":"function","name":"addMember","inputs":[{"name":"groupId","type":"uint256","internalType":"uint256"},{"name":"member","type":"address","internalType":"address"}],"outputs":[],"stateMutability":"nonpayable"},{"type":"function","name":"createGroup","inputs":[{"name":"name","type":"string","internalType":"string"},{"name":"initialMembers","type":"address[]","internalType":"address[]"}],"outputs":[{"name":"","type":"uint256","internalType":"uint256"}],"stateMutability":"nonpayable"},{"type":"function","name":"emergencyWithdraw","inputs":[{"name":"tokenAddress","type":"address","internalType":"address"}],"outputs":[],"stateMutability":"nonpayable"},{"type":"function","name":"expenseCounter","inputs":[],"outputs":[{"name":"","type":"uint256","internalType":"uint256"}],"stateMutability":"view"},{"type":"function","name":"expenses","inputs":[{"name":"","type":"uint256","internalType":"uint256"}],"outputs":[{"name":"id","type":"uint256","internalType":"uint256"},{"name":"groupId","type":"uint256","internalType":"uint256"},{"name":"description","type":"string","internalType":"string"},{"name":"totalAmount","type":"uint256","internalType":"uint256"},{"name":"payer","type":"address","internalType":"address"},{"name":"tokenAddress","type":"address","internalType":"address"},{"name":"createdAt","type":"uint256","internalType":"uint256"},{"name":"isSettled","type":"bool","internalType":"bool"}],"stateMutability":"view"},{"type":"function","name":"feeRecipient","inputs":[],"outputs":[{"name":"","type":"address","internalType":"address"}],"stateMutability":"view"},{"type":"function","name":"getExpense","inputs":[{"name":"expenseId","type":"uint256","internalType":"uint256"}],"outputs":[{"name":"id","type":"uint256","internalType":"uint256"},{"name":"groupId","type":"uint256","internalType":"uint256"},{"name":"description","type":"string","internalType":"string"},{"name":"totalAmount","type":"uint256","internalType":"uint256"},{"name":"payer","type":"address","internalType":"address"},{"name":"participants","type":"address[]","internalType":"address[]"},{"name":"tokenAddress","type":"address","internalType":"address"},{"name":"createdAt","type":"uint256","internalType":"uint256"},{"name":"isSettled","type":"bool","internalType":"bool"}],"stateMutability":"view"},{"type":"function","name":"getExpenseShare","inputs":[{"name":"expenseId","type":"uint256","internalType":"uint256"},{"name":"participant","type":"address","internalType":"address"}],"outputs":[{"name":"","type":"uint256","internalType":"uint256"}],"stateMutability":"view"},{"type":"function","name":"getGroup","inputs":[{"name":"groupId","type":"uint256","internalType":"uint256"}],"outputs":[{"name":"id","type":"uint256","internalType":"uint256"},{"name":"name","type":"string","internalType":"string"},{"name":"creator","type":"address","internalType":"address"},{"name":"members","type":"address[]","internalType":"address[]"},{"name":"expenseCount","type":"uint256","internalType":"uint256"},{"name":"isActive","type":"bool","internalType":"bool"},{"name":"createdAt","type":"uint256","internalType":"uint256"}],"stateMutability":"view"},{"type":"function","name":"getGroupMembers","inputs":[{"name":"groupId","type":"uint256","internalType":"uint256"}],"outputs":[{"name":"","type":"address[]","internalType":"address[]"}],"stateMutability":"view"},{"type":"function","name":"getUserBalance","inputs":[{"name":"groupId","type":"uint256","internalType":"uint256"},{"name":"user","type":"address","internalType":"address"}],"outputs":[{"name":"","type":"int256","internalType":"int256"}],"stateMutability":"view"},{"type":"function","name":"getUserGroups","inputs":[{"name":"user","type":"address","internalType":"address"}],"outputs":[{"name":"","type":"uint256[]","internalType":"uint256[]"}],"stateMutability":"view"},{"type":"function","name":"groupCounter","inputs":[],"outputs":[{"name":"","type":"uint256","internalType":"uint256"}],"stateMutability":"view"},{"type":"function","name":"groups","inputs":[{"name":"","type":"uint256","internalType":"uint256"}],"outputs":[{"name":"id","type":"uint256","internalType":"uint256"},{"name":"name","type":"string","internalType":"string"},{"name":"creator","type":"address","internalType":"address"},{"name":"expenseCount","type":"uint256","internalType":"uint256"},{"name":"isActive","type":"bool","internalType":"bool"},{"name":"createdAt","type":"uint256","internalType":"uint256"}],"stateMutability":"view"},{"type":"function","name":"owner","inputs":[],"outputs":[{"name":"","type":"address","internalType":"address"}],"stateMutability":"view"},{"type":"function","name":"platformFee","inputs":[],"outputs":[{"name":"","type":"uint256","internalType":"uint256"}],"stateMutability":"view"},{"type":"function","name":"removeMember","inputs":[{"name":"groupId","type":"uint256","internalType":"uint256"},{"name":"member","type":"address","internalType":"address"}],"outputs":[],"stateMutability":"nonpayable"},{"type":"function","name":"renounceOwnership","inputs":[],"outputs":[],"stateMutability":"nonpayable"},{"type":"function","name":"setFeeRecipient","inputs":[{"name":"newRecipient","type":"address","internalType":"address"}],"outputs":[],"stateMutability":"nonpayable"},{"type":"function","name":"setPlatformFee","inputs":[{"name":"newFee","type":"uint256","internalType":"uint256"}],"outputs":[],"stateMutability":"nonpayable"},{"type":"function","name":"settleDebt","inputs":[{"name":"groupId","type":"uint256","internalType":"uint256"},{"name":"creditor","type":"address","internalType":"address"},{"name":"amount","type":"uint256","internalType":"uint256"},{"name":"tokenAddress","type":"address","internalType":"address"}],"outputs":[],"stateMutability":"payable"},{"type":"function","name":"transferOwnership","inputs":[{"name":"newOwner","type":"address","internalType":"address"}],"outputs":[],"stateMutability":"nonpayable"},{"type":"function","name":"userGroups","inputs":[{"name":"","type":"address","internalType":"address"},{"name":"","type":"uint256","internalType":"uint256"}],"outputs":[{"name":"","type":"uint256","internalType":"uint256"}],"stateMutability":"view"},{"type":"event","name":"DebtSettled","inputs":[{"name":"groupId","type":"uint256","indexed":true,"internalType":"uint256"},{"name":"debtor","type":"address","indexed":true,"internalType":"address"},{"name":"creditor","type":"address","indexed":true,"internalType":"address"},{"name":"amount","type":"uint256","indexed":false,"internalType":"uint256"}],"anonymous":false},{"type":"event","name":"ExpenseAdded","inputs":[{"name":"groupId","type":"uint256","indexed":true,"internalType":"uint256"},{"name":"expenseId","type":"uint256","indexed":true,"internalType":"uint256"},{"name":"payer","type":"address","indexed":true,"internalType":"address"},{"name":"amount","type":"uint256","indexed":false,"internalType":"uint256"}],"anonymous":false},{"type":"event","name":"ExpenseSettled","inputs":[{"name":"groupId","type":"uint256","indexed":true,"internalType":"uint256"},{"name":"expenseId","type":"uint256","indexed":true,"internalType":"uint256"},{"name":"settler","type":"address","indexed":true,"internalType":"address"},{"name":"amount","type":"uint256","indexed":false,"internalType":"uint256"}],"anonymous":false},{"type":"event","name":"GroupCreated","inputs":[{"name":"groupId","type":"uint256","indexed":true,"internalType":"uint256"},{"name":"creator","type":"address","indexed":true,"internalType":"address"},{"name":"name","type":"string","indexed":false,"internalType":"string"}],"anonymous":false},{"type":"event","name":"MemberAdded","inputs":[{"name":"groupId","type":"uint256","indexed":true,"internalType":"uint256"},{"name":"member","type":"address","indexed":true,"internalType":"address"}],"anonymous":false},{"type":"event","name":"MemberRemoved","inputs":[{"name":"groupId","type":"uint256","indexed":true,"internalType":"uint256"},{"name":"member","type":"address","indexed":true,"internalType":"address"}],"anonymous":false},{"type":"event","name":"OwnershipTransferred","inputs":[{"name":"previousOwner","type":"address","indexed":true,"internalType":"address"},{"name":"newOwner","type":"address","indexed":true,"internalType":"address"}],"anonymous":false}],"bytecode":{"object":"0x608060405260326008553480156013575f5ffd5b5060015f55601f336035565b600980546001600160a01b031916331790556086565b600180546001600160a01b038381166001600160a01b0319831681179093556040519116919082907f8be0079c531659141344cd1fd0a4f28419497f9722a3daafe3b4186f6b6457e0905f90a35050565b612b84806100935f395ff3fe608060405260043610610147575f3560e01c8063735e5db6116100b3578063ceb606541161006d578063ceb60654146103ee578063cfbe575c14610420578063d24924fe1461043f578063ddcad2ae14610454578063e74b981b14610469578063f2fde38b14610488575f5ffd5b8063735e5db6146102d957806374d0a6761461030d5780638da5cb5b1461032c57806396324bd414610349578063af4afe0a1461037a578063cdfb6cf3146103ad575f5ffd5b80634690484011610104578063469048401461021257806360a9e097146102495780636be7658b146102685780636e63d322146102875780636ff1c9bc146102a6578063715018a6146102c5575f5ffd5b806312e8e2c31461014b57806318f731a31461016c57806326232a2e1461017f5780632df19cdd146101a757806336cc8130146101ba5780633da04e4a146101e6575b5f5ffd5b348015610156575f5ffd5b5061016a61016536600461223b565b6104a7565b005b61016a61017a3660046123b2565b610503565b34801561018a575f5ffd5b5061019460085481565b6040519081526020015b60405180910390f35b61016a6101b53660046124ba565b610a00565b3480156101c5575f5ffd5b506101d96101d436600461223b565b610eae565b60405161019e9190612540565b3480156101f1575f5ffd5b50610205610200366004612559565b610f1a565b60405161019e9190612572565b34801561021d575f5ffd5b50600954610231906001600160a01b031681565b6040516001600160a01b03909116815260200161019e565b348015610254575f5ffd5b506101946102633660046125b4565b610f82565b348015610273575f5ffd5b5061016a6102823660046125dc565b610fad565b348015610292575f5ffd5b506101946102a13660046125dc565b611105565b3480156102b1575f5ffd5b5061016a6102c0366004612559565b611131565b3480156102d0575f5ffd5b5061016a611211565b3480156102e4575f5ffd5b506102f86102f336600461223b565b611224565b60405161019e99989796959493929190612634565b348015610318575f5ffd5b5061016a6103273660046125dc565b611390565b348015610337575f5ffd5b506001546001600160a01b0316610231565b348015610354575f5ffd5b5061036861036336600461223b565b6114f4565b60405161019e969594939291906126aa565b348015610385575f5ffd5b5061039961039436600461223b565b6115bf565b60405161019e9897969594939291906126f0565b3480156103b8575f5ffd5b506101946103c73660046125dc565b5f9182526006602090815260408084206001600160a01b0393909316845291905290205490565b3480156103f9575f5ffd5b5061040d61040836600461223b565b611695565b60405161019e9796959493929190612747565b34801561042b575f5ffd5b5061019461043a3660046127a0565b6117e6565b34801561044a575f5ffd5b5061019460025481565b34801561045f575f5ffd5b5061019460035481565b348015610474575f5ffd5b5061016a610483366004612559565b611990565b348015610493575f5ffd5b5061016a6104a2366004612559565b611a04565b6104af611a7a565b6103e88111156104fe5760405162461bcd60e51b81526020600482015260156024820152744665652063616e6e6f74206578636565642031302560581b60448201526064015b60405180910390fd5b600855565b5f868152600460205260408120548791036105305760405162461bcd60e51b81526004016104f590612805565b5f8781526004602081815260408084203385529092019052902054879060ff1661056c5760405162461bcd60e51b81526004016104f590612833565b610574611ad4565b5f8751116105c45760405162461bcd60e51b815260206004820152601b60248201527f4465736372697074696f6e2063616e6e6f7420626520656d707479000000000060448201526064016104f5565b5f86116106135760405162461bcd60e51b815260206004820152601d60248201527f416d6f756e74206d7573742062652067726561746572207468616e203000000060448201526064016104f5565b5f85511161065c5760405162461bcd60e51b81526020600482015260166024820152754d7573742068617665207061727469636970616e747360501b60448201526064016104f5565b83518551146106bd5760405162461bcd60e51b815260206004820152602760248201527f5061727469636970616e747320616e6420736861726573206c656e677468206d6044820152660d2e6dac2e8c6d60cb1b60648201526084016104f5565b5f5b85518110156107695760045f8a81526020019081526020015f206004015f8783815181106106ef576106ef61285f565b6020908102919091018101516001600160a01b031682528101919091526040015f205460ff166107615760405162461bcd60e51b815260206004820152601860248201527f5061727469636970616e74206e6f7420696e2067726f7570000000000000000060448201526064016104f5565b6001016106bf565b505f805b85518110156107a5578581815181106107885761078861285f565b60200260200101518261079b9190612887565b915060010161076d565b508681146107f55760405162461bcd60e51b815260206004820152601f60248201527f536861726573206d7573742073756d20746f20746f74616c20616d6f756e740060448201526064016104f5565b60038054905f6108048361289a565b90915550506003545f818152600560205260409020818155600181018b9055600281016108318b8261292e565b50600381018990556004810180546001600160a01b03191633179055875161086290600583019060208b01906121c4565b506008810180546001600160a01b0319166001600160a01b0388161790554260098201555f5b88518110156108ed578781815181106108a3576108a361285f565b6020026020010151826006015f8b84815181106108c2576108c261285f565b6020908102919091018101516001600160a01b031682528101919091526040015f2055600101610888565b506001600160a01b038616610947578834146109425760405162461bcd60e51b8152602060048201526014602482015273125b98dbdc9c9958dd0811551208185b5bdd5b9d60621b60448201526064016104f5565b61097a565b34156109655760405162461bcd60e51b81526004016104f5906129e9565b61097a6001600160a01b03871633308c611b2b565b6109848b83611b9c565b5f8b81526004602052604081206006018054916109a08361289a565b9190505550336001600160a01b0316828c7fcce5df0764f156d5d8021e18a302ab652c016fc057e00406d3b63a2e216060298c6040516109e291815260200190565b60405180910390a45050506109f660015f55565b5050505050505050565b5f84815260046020526040812054859103610a2d5760405162461bcd60e51b81526004016104f590612805565b5f8581526004602081815260408084203385529092019052902054859060ff16610a695760405162461bcd60e51b81526004016104f590612833565b610a71611ad4565b336001600160a01b03861603610ac95760405162461bcd60e51b815260206004820152601b60248201527f43616e6e6f7420736574746c65207769746820796f757273656c66000000000060448201526064016104f5565b5f8681526004602081815260408084206001600160a01b038a168552909201905290205460ff16610b345760405162461bcd60e51b815260206004820152601560248201527404372656469746f72206e6f7420696e2067726f757605c1b60448201526064016104f5565b5f8411610b835760405162461bcd60e51b815260206004820152601d60248201527f416d6f756e74206d7573742062652067726561746572207468616e203000000060448201526064016104f5565b5f86815260066020908152604080832033845291829052808320546001600160a01b03891684529083205491929091908212610bf75760405162461bcd60e51b8152602060048201526013602482015272596f7520646f6e2774206f7765206d6f6e657960681b60448201526064016104f5565b5f8113610c465760405162461bcd60e51b815260206004820152601a60248201527f4372656469746f72206973206e6f74206f776564206d6f6e657900000000000060448201526064016104f5565b5f81610c5184612a2c565b10610c5c5781610c65565b610c6583612a2c565b905080881115610cb75760405162461bcd60e51b815260206004820152601a60248201527f536574746c656d656e7420616d6f756e7420746f6f206869676800000000000060448201526064016104f5565b5f6127106008548a610cc99190612a46565b610cd39190612a5d565b90505f610ce0828b612a7c565b90506001600160a01b038916610dae57893414610d365760405162461bcd60e51b8152602060048201526014602482015273125b98dbdc9c9958dd0811551208185b5bdd5b9d60621b60448201526064016104f5565b6040516001600160a01b038c169082156108fc029083905f818181858888f19350505050158015610d69573d5f5f3e3d5ffd5b508115610da9576009546040516001600160a01b039091169083156108fc029084905f818181858888f19350505050158015610da7573d5f5f3e3d5ffd5b505b610e06565b3415610dcc5760405162461bcd60e51b81526004016104f5906129e9565b88610de26001600160a01b038216338e85611b2b565b8215610e0457600954610e04906001600160a01b038381169133911686611b2b565b505b335f90815260208790526040812080548c9290610e24908490612a8f565b90915550506001600160a01b038b165f90815260208790526040812080548c9290610e50908490612ab6565b90915550506040518a81526001600160a01b038c169033908e907f16c014bb6d1c6cc25e4d9c2ffff2d5052bc083462038999100ead76edf97bee09060200160405180910390a4505050505050610ea660015f55565b505050505050565b5f81815260046020908152604091829020600301805483518184028101840190945280845260609392830182828015610f0e57602002820191905f5260205f20905b81546001600160a01b03168152600190910190602001808311610ef0575b50505050509050919050565b6001600160a01b0381165f90815260076020908152604091829020805483518184028101840190945280845260609392830182828015610f0e57602002820191905f5260205f20905b815481526020019060010190808311610f635750505050509050919050565b6007602052815f5260405f208181548110610f9b575f80fd5b905f5260205f20015f91509150505481565b5f82815260046020526040812054839103610fda5760405162461bcd60e51b81526004016104f590612805565b5f838152600460205260409020600201546001600160a01b03163314806110095750336001600160a01b038316145b61105f5760405162461bcd60e51b815260206004820152602160248201527f4f6e6c792063726561746f72206f72206d656d6265722063616e2072656d6f766044820152606560f81b60648201526084016104f5565b5f8381526004602081815260408084206001600160a01b0387168552909201905290205460ff166110c15760405162461bcd60e51b815260206004820152600c60248201526b2737ba10309036b2b6b132b960a11b60448201526064016104f5565b6110cb8383611c6a565b6040516001600160a01b0383169084907f1c4c9d2e56d0635d11bc47c997c6909a0d7061f55cbb8f4b27386db37553191c905f90a3505050565b5f8281526005602090815260408083206001600160a01b03851684526006019091529020545b92915050565b611139611a7a565b6001600160a01b038116611181576001546040516001600160a01b03909116904780156108fc02915f818181858888f1935050505015801561117d573d5f5f3e3d5ffd5b5050565b8061117d6111976001546001600160a01b031690565b6040516370a0823160e01b81523060048201526001600160a01b038416906370a0823190602401602060405180830381865afa1580156111d9573d5f5f3e3d5ffd5b505050506040513d601f19601f820116820180604052508101906111fd9190612adc565b6001600160a01b0384169190611e45565b50565b611219611a7a565b6112225f611e7a565b565b5f8181526005602081905260408220805460018201546003830154600484015460088501546009860154600a8701546002880180548b9a60609a8c9a8b9a8d9a8c9a8b9a8b9a959994989397939692956001600160a01b0392831695938b0194919092169260ff16908790611298906128b2565b80601f01602080910402602001604051908101604052809291908181526020018280546112c4906128b2565b801561130f5780601f106112e65761010080835404028352916020019161130f565b820191905f5260205f20905b8154815290600101906020018083116112f257829003601f168201915b505050505096508380548060200260200160405190810160405280929190818152602001828054801561136957602002820191905f5260205f20905b81546001600160a01b0316815260019091019060200180831161134b575b50505050509350995099509950995099509950995099509950509193959799909294969850565b5f828152600460205260408120548391036113bd5760405162461bcd60e51b81526004016104f590612805565b5f8381526004602081815260408084203385529092019052902054839060ff166113f95760405162461bcd60e51b81526004016104f590612833565b6001600160a01b0383166114485760405162461bcd60e51b8152602060048201526016602482015275496e76616c6964206d656d626572206164647265737360501b60448201526064016104f5565b5f8481526004602081815260408084206001600160a01b0388168552909201905290205460ff16156114af5760405162461bcd60e51b815260206004820152601060248201526f20b63932b0b23c90309036b2b6b132b960811b60448201526064016104f5565b6114b98484611ecb565b6040516001600160a01b0384169085907ff328ac0f8bcae00933fe87ba0aa2d0d505c1df94bc9c1aa05b8441c28b74032c905f90a350505050565b60046020525f908152604090208054600182018054919291611515906128b2565b80601f0160208091040260200160405190810160405280929190818152602001828054611541906128b2565b801561158c5780601f106115635761010080835404028352916020019161158c565b820191905f5260205f20905b81548152906001019060200180831161156f57829003601f168201915b50505060028401546006850154600786015460089096015494956001600160a01b039092169490935060ff909116915086565b60056020525f9081526040902080546001820154600283018054929391926115e6906128b2565b80601f0160208091040260200160405190810160405280929190818152602001828054611612906128b2565b801561165d5780601f106116345761010080835404028352916020019161165d565b820191905f5260205f20905b81548152906001019060200180831161164057829003601f168201915b5050506003840154600485015460088601546009870154600a90970154959692956001600160a01b0392831695509116925060ff1688565b5f81815260046020526040812080546002820154600683015460078401546008850154600186018054606097899789978997889788979496939593946001600160a01b0390931693600388019360ff909216919086906116f4906128b2565b80601f0160208091040260200160405190810160405280929190818152602001828054611720906128b2565b801561176b5780601f106117425761010080835404028352916020019161176b565b820191905f5260205f20905b81548152906001019060200180831161174e57829003601f168201915b50505050509550838054806020026020016040519081016040528092919081815260200182805480156117c557602002820191905f5260205f20905b81546001600160a01b031681526001909101906020018083116117a7575b50505050509350975097509750975097509750975050919395979092949650565b5f5f8351116118375760405162461bcd60e51b815260206004820152601a60248201527f47726f7570206e616d652063616e6e6f7420626520656d70747900000000000060448201526064016104f5565b60028054905f6118468361289a565b90915550506002545f8181526004602052604090208181556001810161186c868261292e565b506002810180546001600160a01b0319163390811790915560078201805460ff191660011790554260088301556118a4908390611ecb565b5f5b845181101561194557336001600160a01b03168582815181106118cb576118cb61285f565b60200260200101516001600160a01b03161415801561191557505f6001600160a01b03168582815181106119015761190161285f565b60200260200101516001600160a01b031614155b1561193d5761193d838683815181106119305761193061285f565b6020026020010151611ecb565b6001016118a6565b50336001600160a01b0316827f4354295f5d98820e66a770bd58cf23606ab255dd9dc2daf870fab38ecbc3e7e0876040516119809190612af3565b60405180910390a3509392505050565b611998611a7a565b6001600160a01b0381166119e25760405162461bcd60e51b8152602060048201526011602482015270125b9d985b1a59081c9958da5c1a595b9d607a1b60448201526064016104f5565b600980546001600160a01b0319166001600160a01b0392909216919091179055565b611a0c611a7a565b6001600160a01b038116611a715760405162461bcd60e51b815260206004820152602660248201527f4f776e61626c653a206e6577206f776e657220697320746865207a65726f206160448201526564647265737360d01b60648201526084016104f5565b61120e81611e7a565b6001546001600160a01b031633146112225760405162461bcd60e51b815260206004820181905260248201527f4f776e61626c653a2063616c6c6572206973206e6f7420746865206f776e657260448201526064016104f5565b60025f5403611b255760405162461bcd60e51b815260206004820152601f60248201527f5265656e7472616e637947756172643a207265656e7472616e742063616c6c0060448201526064016104f5565b60025f55565b6040516001600160a01b0380851660248301528316604482015260648101829052611b969085906323b872dd60e01b906084015b60408051601f198184030181529190526020810180516001600160e01b03166001600160e01b031990931692909217909152611f67565b50505050565b5f81815260056020908152604080832085845260068352818420600382015460048301546001600160a01b0316865293819052918420805491949293929091611be6908490612a8f565b909155505f90505b6005830154811015611c63575f836005018281548110611c1057611c1061285f565b5f9182526020808320909101546001600160a01b031680835260068701825260408084205492879052832080549194509192839291611c50908490612ab6565b909155505060019092019150611bee9050565b5050505050565b5f8281526004602090815260408083206001600160a01b038516845260058101909252822054600382015491929091611ca590600190612a7c565b9050808214611d30575f836003018281548110611cc457611cc461285f565b5f918252602090912001546003850180546001600160a01b039092169250829185908110611cf457611cf461285f565b5f91825260208083209190910180546001600160a01b0319166001600160a01b0394851617905592909116815260058501909152604090208290555b82600301805480611d4357611d43612b05565b5f828152602080822083015f1990810180546001600160a01b03191690559092019092556001600160a01b03861682526004850181526040808320805460ff1916905560058601825280832083905560079091528120905b8154811015611e3c5786828281548110611db757611db761285f565b905f5260205f20015403611e345781548290611dd590600190612a7c565b81548110611de557611de561285f565b905f5260205f200154828281548110611e0057611e0061285f565b905f5260205f20018190555081805480611e1c57611e1c612b05565b600190038181905f5260205f20015f90559055611e3c565b600101611d9b565b50505050505050565b6040516001600160a01b038316602482015260448101829052611e7590849063a9059cbb60e01b90606401611b5f565b505050565b600180546001600160a01b038381166001600160a01b0319831681179093556040519116919082907f8be0079c531659141344cd1fd0a4f28419497f9722a3daafe3b4186f6b6457e0905f90a35050565b5f8281526004602081815260408084206003810180546001808201835582885285882090910180546001600160a01b0319166001600160a01b038a1690811790915587529482019093529320805460ff19168317905554611f2c9190612a7c565b6001600160a01b039092165f908152600590910160209081526040808320939093556007815291812080546001810182559082529190200155565b5f611fbb826040518060400160405280602081526020017f5361666545524332303a206c6f772d6c6576656c2063616c6c206661696c6564815250856001600160a01b031661203a9092919063ffffffff16565b905080515f1480611fdb575080806020019051810190611fdb9190612b19565b611e755760405162461bcd60e51b815260206004820152602a60248201527f5361666545524332303a204552433230206f7065726174696f6e20646964206e6044820152691bdd081cdd58d8d9595960b21b60648201526084016104f5565b606061204884845f85612050565b949350505050565b6060824710156120b15760405162461bcd60e51b815260206004820152602660248201527f416464726573733a20696e73756666696369656e742062616c616e636520666f6044820152651c8818d85b1b60d21b60648201526084016104f5565b5f5f866001600160a01b031685876040516120cc9190612b38565b5f6040518083038185875af1925050503d805f8114612106576040519150601f19603f3d011682016040523d82523d5f602084013e61210b565b606091505b509150915061211c87838387612127565b979650505050505050565b606083156121955782515f0361218e576001600160a01b0385163b61218e5760405162461bcd60e51b815260206004820152601d60248201527f416464726573733a2063616c6c20746f206e6f6e2d636f6e747261637400000060448201526064016104f5565b5081612048565b61204883838151156121aa5781518083602001fd5b8060405162461bcd60e51b81526004016104f59190612af3565b828054828255905f5260205f20908101928215612217579160200282015b8281111561221757825182546001600160a01b0319166001600160a01b039091161782556020909201916001909101906121e2565b50612223929150612227565b5090565b5b80821115612223575f8155600101612228565b5f6020828403121561224b575f5ffd5b5035919050565b634e487b7160e01b5f52604160045260245ffd5b604051601f8201601f1916810167ffffffffffffffff8111828210171561228f5761228f612252565b604052919050565b5f82601f8301126122a6575f5ffd5b813567ffffffffffffffff8111156122c0576122c0612252565b6122d3601f8201601f1916602001612266565b8181528460208386010111156122e7575f5ffd5b816020850160208301375f918101602001919091529392505050565b5f67ffffffffffffffff82111561231c5761231c612252565b5060051b60200190565b80356001600160a01b038116811461233c575f5ffd5b919050565b5f82601f830112612350575f5ffd5b813561236361235e82612303565b612266565b8082825260208201915060208360051b860101925085831115612384575f5ffd5b602085015b838110156123a85761239a81612326565b835260209283019201612389565b5095945050505050565b5f5f5f5f5f5f60c087890312156123c7575f5ffd5b86359550602087013567ffffffffffffffff8111156123e4575f5ffd5b6123f089828a01612297565b95505060408701359350606087013567ffffffffffffffff811115612413575f5ffd5b61241f89828a01612341565b935050608087013567ffffffffffffffff81111561243b575f5ffd5b8701601f8101891361244b575f5ffd5b803561245961235e82612303565b8082825260208201915060208360051b85010192508b83111561247a575f5ffd5b6020840193505b8284101561249c578335825260209384019390910190612481565b94506124ae9250505060a08801612326565b90509295509295509295565b5f5f5f5f608085870312156124cd575f5ffd5b843593506124dd60208601612326565b9250604085013591506124f260608601612326565b905092959194509250565b5f8151808452602084019350602083015f5b828110156125365781516001600160a01b031686526020958601959091019060010161250f565b5093949350505050565b602081525f61255260208301846124fd565b9392505050565b5f60208284031215612569575f5ffd5b61255282612326565b602080825282518282018190525f918401906040840190835b818110156125a957835183526020938401939092019160010161258b565b509095945050505050565b5f5f604083850312156125c5575f5ffd5b6125ce83612326565b946020939093013593505050565b5f5f604083850312156125ed575f5ffd5b823591506125fd60208401612326565b90509250929050565b5f81518084528060208401602086015e5f602082860101526020601f19601f83011685010191505092915050565b89815288602082015261012060408201525f61265461012083018a612606565b606083018990526001600160a01b038816608084015282810360a084015261267c81886124fd565b6001600160a01b039690961660c0840152505060e08101929092521515610100909101529695505050505050565b86815260c060208201525f6126c260c0830188612606565b6001600160a01b03969096166040830152506060810193909352901515608083015260a09091015292915050565b88815287602082015261010060408201525f612710610100830189612606565b6060830197909752506001600160a01b0394851660808201529290931660a083015260c082015290151560e0909101529392505050565b87815260e060208201525f61275f60e0830189612606565b6001600160a01b0388166040840152828103606084015261278081886124fd565b6080840196909652505091151560a083015260c090910152949350505050565b5f5f604083850312156127b1575f5ffd5b823567ffffffffffffffff8111156127c7575f5ffd5b6127d385828601612297565b925050602083013567ffffffffffffffff8111156127ef575f5ffd5b6127fb85828601612341565b9150509250929050565b60208082526014908201527311dc9bdd5c08191bd95cc81b9bdd08195e1a5cdd60621b604082015260600190565b6020808252601290820152712737ba10309033b937bab81036b2b6b132b960711b604082015260600190565b634e487b7160e01b5f52603260045260245ffd5b634e487b7160e01b5f52601160045260245ffd5b8082018082111561112b5761112b612873565b5f600182016128ab576128ab612873565b5060010190565b600181811c908216806128c657607f821691505b6020821081036128e457634e487b7160e01b5f52602260045260245ffd5b50919050565b601f821115611e7557805f5260205f20601f840160051c8101602085101561290f5750805b601f840160051c820191505b81811015611c63575f815560010161291b565b815167ffffffffffffffff81111561294857612948612252565b61295c8161295684546128b2565b846128ea565b6020601f82116001811461298e575f83156129775750848201515b5f19600385901b1c1916600184901b178455611c63565b5f84815260208120601f198516915b828110156129bd578785015182556020948501946001909201910161299d565b50848210156129da57868401515f19600387901b60f8161c191681555b50505050600190811b01905550565b60208082526023908201527f455448206e6f7420616363657074656420666f7220746f6b656e207061796d656040820152626e747360e81b606082015260800190565b5f600160ff1b8201612a4057612a40612873565b505f0390565b808202811582820484141761112b5761112b612873565b5f82612a7757634e487b7160e01b5f52601260045260245ffd5b500490565b8181038181111561112b5761112b612873565b8082018281125f831280158216821582161715612aae57612aae612873565b505092915050565b8181035f831280158383131683831282161715612ad557612ad5612873565b5092915050565b5f60208284031215612aec575f5ffd5b5051919050565b602081525f6125526020830184612606565b634e487b7160e01b5f52603160045260245ffd5b5f60208284031215612b29575f5ffd5b81518015158114612552575f5ffd5b5f82518060208501845e5f92019182525091905056fea264697066735822122008a85e2cfae22e6a02090c545178c4b171b76ad72d4fe3bf1006ee1eecf271ea64736f6c634300081e0033","linkReferences":{}},"methodIdentifiers":{"addExpense(uint256,string,uint256,address[],uint256[],address)":"18f731a3","addMember(uint256,address)":"74d0a676","createGroup(string,address[])":"cfbe575c","emergencyWithdraw(address)":"6ff1c9bc","expenseCounter()":"ddcad2ae","expenses(uint256)":"af4afe0a","feeRecipient()":"46904840","getExpense(uint256)":"735e5db6","getExpenseShare(uint256,address)":"6e63d322","getGroup(uint256)":"ceb60654","getGroupMembers(uint256)":"36cc8130","getUserBalance(uint256,address)":"cdfb6cf3","getUserGroups(address)":"3da04e4a","groupCounter()":"d24924fe","groups(uint256)":"96324bd4","owner()":"8da5cb5b","platformFee()":"26232a2e","removeMember(uint256,address)":"6be7658b","renounceOwnership()":"715018a6","setFeeRecipient(address)":"e74b981b","setPlatformFee(uint256)":"12e8e2c3","settleDebt(uint256,address,uint256,address)":"2df19cdd","transferOwnership(address)":"f2fde38b","userGroups(address,uint256)":"60a9e097"},"id":1}