{"abi":[{"type":"constructor","inputs":[],"stateMutability":"nonpayable"},{"type":"function","name":"MAX_SUPPLY","inputs":[],"outputs":[{"name":"","type":"uint256","internalType":"uint256"}],"stateMutability":"view"},{"type":"function","name":"addMinter","inputs":[{"name":"minter","type":"address","internalType":"address"}],"outputs":[],"stateMutability":"nonpayable"},{"type":"function","name":"allowance","inputs":[{"name":"owner","type":"address","internalType":"address"},{"name":"spender","type":"address","internalType":"address"}],"outputs":[{"name":"","type":"uint256","internalType":"uint256"}],"stateMutability":"view"},{"type":"function","name":"approve","inputs":[{"name":"spender","type":"address","internalType":"address"},{"name":"amount","type":"uint256","internalType":"uint256"}],"outputs":[{"name":"","type":"bool","internalType":"bool"}],"stateMutability":"nonpayable"},{"type":"function","name":"balanceOf","inputs":[{"name":"account","type":"address","internalType":"address"}],"outputs":[{"name":"","type":"uint256","internalType":"uint256"}],"stateMutability":"view"},{"type":"function","name":"burn","inputs":[{"name":"amount","type":"uint256","internalType":"uint256"}],"outputs":[],"stateMutability":"nonpayable"},{"type":"function","name":"burnFrom","inputs":[{"name":"account","type":"address","internalType":"address"},{"name":"amount","type":"uint256","internalType":"uint256"}],"outputs":[],"stateMutability":"nonpayable"},{"type":"function","name":"decimals","inputs":[],"outputs":[{"name":"","type":"uint8","internalType":"uint8"}],"stateMutability":"view"},{"type":"function","name":"decreaseAllowance","inputs":[{"name":"spender","type":"address","internalType":"address"},{"name":"subtractedValue","type":"uint256","internalType":"uint256"}],"outputs":[{"name":"","type":"bool","internalType":"bool"}],"stateMutability":"nonpayable"},{"type":"function","name":"increaseAllowance","inputs":[{"name":"spender","type":"address","internalType":"address"},{"name":"addedValue","type":"uint256","internalType":"uint256"}],"outputs":[{"name":"","type":"bool","internalType":"bool"}],"stateMutability":"nonpayable"},{"type":"function","name":"mint","inputs":[{"name":"to","type":"address","internalType":"address"},{"name":"amount","type":"uint256","internalType":"uint256"}],"outputs":[],"stateMutability":"nonpayable"},{"type":"function","name":"minters","inputs":[{"name":"","type":"address","internalType":"address"}],"outputs":[{"name":"","type":"bool","internalType":"bool"}],"stateMutability":"view"},{"type":"function","name":"name","inputs":[],"outputs":[{"name":"","type":"string","internalType":"string"}],"stateMutability":"view"},{"type":"function","name":"owner","inputs":[],"outputs":[{"name":"","type":"address","internalType":"address"}],"stateMutability":"view"},{"type":"function","name":"removeMinter","inputs":[{"name":"minter","type":"address","internalType":"address"}],"outputs":[],"stateMutability":"nonpayable"},{"type":"function","name":"renounceOwnership","inputs":[],"outputs":[],"stateMutability":"nonpayable"},{"type":"function","name":"symbol","inputs":[],"outputs":[{"name":"","type":"string","internalType":"string"}],"stateMutability":"view"},{"type":"function","name":"totalSupply","inputs":[],"outputs":[{"name":"","type":"uint256","internalType":"uint256"}],"stateMutability":"view"},{"type":"function","name":"transfer","inputs":[{"name":"to","type":"address","internalType":"address"},{"name":"amount","type":"uint256","internalType":"uint256"}],"outputs":[{"name":"","type":"bool","internalType":"bool"}],"stateMutability":"nonpayable"},{"type":"function","name":"transferFrom","inputs":[{"name":"from","type":"address","internalType":"address"},{"name":"to","type":"address","internalType":"address"},{"name":"amount","type":"uint256","internalType":"uint256"}],"outputs":[{"name":"","type":"bool","internalType":"bool"}],"stateMutability":"nonpayable"},{"type":"function","name":"transferOwnership","inputs":[{"name":"newOwner","type":"address","internalType":"address"}],"outputs":[],"stateMutability":"nonpayable"},{"type":"event","name":"Approval","inputs":[{"name":"owner","type":"address","indexed":true,"internalType":"address"},{"name":"spender","type":"address","indexed":true,"internalType":"address"},{"name":"value","type":"uint256","indexed":false,"internalType":"uint256"}],"anonymous":false},{"type":"event","name":"MinterAdded","inputs":[{"name":"minter","type":"address","indexed":true,"internalType":"address"}],"anonymous":false},{"type":"event","name":"MinterRemoved","inputs":[{"name":"minter","type":"address","indexed":true,"internalType":"address"}],"anonymous":false},{"type":"event","name":"OwnershipTransferred","inputs":[{"name":"previousOwner","type":"address","indexed":true,"internalType":"address"},{"name":"newOwner","type":"address","indexed":true,"internalType":"address"}],"anonymous":false},{"type":"event","name":"Transfer","inputs":[{"name":"from","type":"address","indexed":true,"internalType":"address"},{"name":"to","type":"address","indexed":true,"internalType":"address"},{"name":"value","type":"uint256","indexed":false,"internalType":"uint256"}],"anonymous":false}],"bytecode":{"object":"0x608060405234801561000f575f5ffd5b506040518060400160405280601081526020017f53706c6974436861696e20546f6b656e000000000000000000000000000000008152506040518060400160405280600581526020017f53504c4954000000000000000000000000000000000000000000000000000000815250816003908161008b9190610545565b50806004908161009b9190610545565b5050506100ba6100af6100da60201b60201c565b6100e160201b60201c565b6100d5336a52b7d2dcc80cd2e40000006101a460201b60201c565b610714565b5f33905090565b5f60055f9054906101000a900473ffffffffffffffffffffffffffffffffffffffff1690508160055f6101000a81548173ffffffffffffffffffffffffffffffffffffffff021916908373ffffffffffffffffffffffffffffffffffffffff1602179055508173ffffffffffffffffffffffffffffffffffffffff168173ffffffffffffffffffffffffffffffffffffffff167f8be0079c531659141344cd1fd0a4f28419497f9722a3daafe3b4186f6b6457e060405160405180910390a35050565b5f73ffffffffffffffffffffffffffffffffffffffff168273ffffffffffffffffffffffffffffffffffffffff1603610212576040517f08c379a00000000000000000000000000000000000000000000000000000000081526004016102099061066e565b60405180910390fd5b6102235f83836102fe60201b60201c565b8060025f82825461023491906106b9565b92505081905550805f5f8473ffffffffffffffffffffffffffffffffffffffff1673ffffffffffffffffffffffffffffffffffffffff1681526020019081526020015f205f82825401925050819055508173ffffffffffffffffffffffffffffffffffffffff165f73ffffffffffffffffffffffffffffffffffffffff167fddf252ad1be2c89b69c2b068fc378daa952ba7f163c4a11628f55a4df523b3ef836040516102e191906106fb565b60405180910390a36102fa5f838361030360201b60201c565b5050565b505050565b505050565b5f81519050919050565b7f4e487b71000000000000000000000000000000000000000000000000000000005f52604160045260245ffd5b7f4e487b71000000000000000000000000000000000000000000000000000000005f52602260045260245ffd5b5f600282049050600182168061038357607f821691505b6020821081036103965761039561033f565b5b50919050565b5f819050815f5260205f209050919050565b5f6020601f8301049050919050565b5f82821b905092915050565b5f600883026103f87fffffffffffffffffffffffffffffffffffffffffffffffffffffffffffffffff826103bd565b61040286836103bd565b95508019841693508086168417925050509392505050565b5f819050919050565b5f819050919050565b5f61044661044161043c8461041a565b610423565b61041a565b9050919050565b5f819050919050565b61045f8361042c565b61047361046b8261044d565b8484546103c9565b825550505050565b5f5f905090565b61048a61047b565b610495818484610456565b505050565b5b818110156104b8576104ad5f82610482565b60018101905061049b565b5050565b601f8211156104fd576104ce8161039c565b6104d7846103ae565b810160208510156104e6578190505b6104fa6104f2856103ae565b83018261049a565b50505b505050565b5f82821c905092915050565b5f61051d5f1984600802610502565b1980831691505092915050565b5f610535838361050e565b9150826002028217905092915050565b61054e82610308565b67ffffffffffffffff81111561056757610566610312565b5b610571825461036c565b61057c8282856104bc565b5f60209050601f8311600181146105ad575f841561059b578287015190505b6105a5858261052a565b86555061060c565b601f1984166105bb8661039c565b5f5b828110156105e2578489015182556001820191506020850194506020810190506105bd565b868310156105ff57848901516105fb601f89168261050e565b8355505b6001600288020188555050505b505050505050565b5f82825260208201905092915050565b7f45524332303a206d696e7420746f20746865207a65726f2061646472657373005f82015250565b5f610658601f83610614565b915061066382610624565b602082019050919050565b5f6020820190508181035f8301526106858161064c565b9050919050565b7f4e487b71000000000000000000000000000000000000000000000000000000005f52601160045260245ffd5b5f6106c38261041a565b91506106ce8361041a565b92508282019050808211156106e6576106e561068c565b5b92915050565b6106f58161041a565b82525050565b5f60208201905061070e5f8301846106ec565b92915050565b611edc806107215f395ff3fe608060405234801561000f575f5ffd5b5060043610610135575f3560e01c806370a08231116100b6578063983b2d561161007a578063983b2d5614610327578063a457c2d714610343578063a9059cbb14610373578063dd62ed3e146103a3578063f2fde38b146103d3578063f46eccc4146103ef57610135565b806370a0823114610295578063715018a6146102c557806379cc6790146102cf5780638da5cb5b146102eb57806395d89b411461030957610135565b8063313ce567116100fd578063313ce567146101f157806332cb6b0c1461020f578063395093511461022d57806340c10f191461025d57806342966c681461027957610135565b806306fdde0314610139578063095ea7b31461015757806318160ddd1461018757806323b872dd146101a55780633092afd5146101d5575b5f5ffd5b61014161041f565b60405161014e9190611459565b60405180910390f35b610171600480360381019061016c919061150a565b6104af565b60405161017e9190611562565b60405180910390f35b61018f6104d1565b60405161019c919061158a565b60405180910390f35b6101bf60048036038101906101ba91906115a3565b6104da565b6040516101cc9190611562565b60405180910390f35b6101ef60048036038101906101ea91906115f3565b610508565b005b6101f96105aa565b6040516102069190611639565b60405180910390f35b6102176105b2565b604051610224919061158a565b60405180910390f35b6102476004803603810190610242919061150a565b6105c2565b6040516102549190611562565b60405180910390f35b6102776004803603810190610272919061150a565b6105f8565b005b610293600480360381019061028e9190611652565b61072d565b005b6102af60048036038101906102aa91906115f3565b610741565b6040516102bc919061158a565b60405180910390f35b6102cd610786565b005b6102e960048036038101906102e4919061150a565b610799565b005b6102f36107b9565b604051610300919061168c565b60405180910390f35b6103116107e1565b60405161031e9190611459565b60405180910390f35b610341600480360381019061033c91906115f3565b610871565b005b61035d6004803603810190610358919061150a565b610914565b60405161036a9190611562565b60405180910390f35b61038d6004803603810190610388919061150a565b610989565b60405161039a9190611562565b60405180910390f35b6103bd60048036038101906103b891906116a5565b6109ab565b6040516103ca919061158a565b60405180910390f35b6103ed60048036038101906103e891906115f3565b610a2d565b005b610409600480360381019061040491906115f3565b610aaf565b6040516104169190611562565b60405180910390f35b60606003805461042e90611710565b80601f016020809104026020016040519081016040528092919081815260200182805461045a90611710565b80156104a55780601f1061047c576101008083540402835291602001916104a5565b820191905f5260205f20905b81548152906001019060200180831161048857829003601f168201915b5050505050905090565b5f5f6104b9610acc565b90506104c6818585610ad3565b600191505092915050565b5f600254905090565b5f5f6104e4610acc565b90506104f1858285610c96565b6104fc858585610d21565b60019150509392505050565b610510610f8d565b5f60065f8373ffffffffffffffffffffffffffffffffffffffff1673ffffffffffffffffffffffffffffffffffffffff1681526020019081526020015f205f6101000a81548160ff0219169083151502179055508073ffffffffffffffffffffffffffffffffffffffff167fe94479a9f7e1952cc78f2d6baab678adc1b772d936c6583def489e524cb6669260405160405180910390a250565b5f6012905090565b6b033b2e3c9fd0803ce800000081565b5f5f6105cc610acc565b90506105ed8185856105de85896109ab565b6105e8919061176d565b610ad3565b600191505092915050565b60065f3373ffffffffffffffffffffffffffffffffffffffff1673ffffffffffffffffffffffffffffffffffffffff1681526020019081526020015f205f9054906101000a900460ff168061067f57506106506107b9565b73ffffffffffffffffffffffffffffffffffffffff163373ffffffffffffffffffffffffffffffffffffffff16145b6106be576040517f08c379a00000000000000000000000000000000000000000000000000000000081526004016106b5906117ea565b60405180910390fd5b6b033b2e3c9fd0803ce8000000816106d46104d1565b6106de919061176d565b111561071f576040517f08c379a000000000000000000000000000000000000000000000000000000000815260040161071690611852565b60405180910390fd5b610729828261100b565b5050565b61073e610738610acc565b82611159565b50565b5f5f5f8373ffffffffffffffffffffffffffffffffffffffff1673ffffffffffffffffffffffffffffffffffffffff1681526020019081526020015f20549050919050565b61078e610f8d565b6107975f61131c565b565b6107ab826107a5610acc565b83610c96565b6107b58282611159565b5050565b5f60055f9054906101000a900473ffffffffffffffffffffffffffffffffffffffff16905090565b6060600480546107f090611710565b80601f016020809104026020016040519081016040528092919081815260200182805461081c90611710565b80156108675780601f1061083e57610100808354040283529160200191610867565b820191905f5260205f20905b81548152906001019060200180831161084a57829003601f168201915b5050505050905090565b610879610f8d565b600160065f8373ffffffffffffffffffffffffffffffffffffffff1673ffffffffffffffffffffffffffffffffffffffff1681526020019081526020015f205f6101000a81548160ff0219169083151502179055508073ffffffffffffffffffffffffffffffffffffffff167f6ae172837ea30b801fbfcdd4108aa1d5bf8ff775444fd70256b44e6bf3dfc3f660405160405180910390a250565b5f5f61091e610acc565b90505f61092b82866109ab565b905083811015610970576040517f08c379a0000000000000000000000000000000000000000000000000000000008152600401610967906118e0565b60405180910390fd5b61097d8286868403610ad3565b60019250505092915050565b5f5f610993610acc565b90506109a0818585610d21565b600191505092915050565b5f60015f8473ffffffffffffffffffffffffffffffffffffffff1673ffffffffffffffffffffffffffffffffffffffff1681526020019081526020015f205f8373ffffffffffffffffffffffffffffffffffffffff1673ffffffffffffffffffffffffffffffffffffffff1681526020019081526020015f2054905092915050565b610a35610f8d565b5f73ffffffffffffffffffffffffffffffffffffffff168173ffffffffffffffffffffffffffffffffffffffff1603610aa3576040517f08c379a0000000000000000000000000000000000000000000000000000000008152600401610a9a9061196e565b60405180910390fd5b610aac8161131c565b50565b6006602052805f5260405f205f915054906101000a900460ff1681565b5f33905090565b5f73ffffffffffffffffffffffffffffffffffffffff168373ffffffffffffffffffffffffffffffffffffffff1603610b41576040517f08c379a0000000000000000000000000000000000000000000000000000000008152600401610b38906119fc565b60405180910390fd5b5f73ffffffffffffffffffffffffffffffffffffffff168273ffffffffffffffffffffffffffffffffffffffff1603610baf576040517f08c379a0000000000000000000000000000000000000000000000000000000008152600401610ba690611a8a565b60405180910390fd5b8060015f8573ffffffffffffffffffffffffffffffffffffffff1673ffffffffffffffffffffffffffffffffffffffff1681526020019081526020015f205f8473ffffffffffffffffffffffffffffffffffffffff1673ffffffffffffffffffffffffffffffffffffffff1681526020019081526020015f20819055508173ffffffffffffffffffffffffffffffffffffffff168373ffffffffffffffffffffffffffffffffffffffff167f8c5be1e5ebec7d5bd14f71427d1e84f3dd0314c0f7b2291e5b200ac8c7c3b92583604051610c89919061158a565b60405180910390a3505050565b5f610ca184846109ab565b90507fffffffffffffffffffffffffffffffffffffffffffffffffffffffffffffffff8114610d1b5781811015610d0d576040517f08c379a0000000000000000000000000000000000000000000000000000000008152600401610d0490611af2565b60405180910390fd5b610d1a8484848403610ad3565b5b50505050565b5f73ffffffffffffffffffffffffffffffffffffffff168373ffffffffffffffffffffffffffffffffffffffff1603610d8f576040517f08c379a0000000000000000000000000000000000000000000000000000000008152600401610d8690611b80565b60405180910390fd5b5f73ffffffffffffffffffffffffffffffffffffffff168273ffffffffffffffffffffffffffffffffffffffff1603610dfd576040517f08c379a0000000000000000000000000000000000000000000000000000000008152600401610df490611c0e565b60405180910390fd5b610e088383836113df565b5f5f5f8573ffffffffffffffffffffffffffffffffffffffff1673ffffffffffffffffffffffffffffffffffffffff1681526020019081526020015f2054905081811015610e8b576040517f08c379a0000000000000000000000000000000000000000000000000000000008152600401610e8290611c9c565b60405180910390fd5b8181035f5f8673ffffffffffffffffffffffffffffffffffffffff1673ffffffffffffffffffffffffffffffffffffffff1681526020019081526020015f2081905550815f5f8573ffffffffffffffffffffffffffffffffffffffff1673ffffffffffffffffffffffffffffffffffffffff1681526020019081526020015f205f82825401925050819055508273ffffffffffffffffffffffffffffffffffffffff168473ffffffffffffffffffffffffffffffffffffffff167fddf252ad1be2c89b69c2b068fc378daa952ba7f163c4a11628f55a4df523b3ef84604051610f74919061158a565b60405180910390a3610f878484846113e4565b50505050565b610f95610acc565b73ffffffffffffffffffffffffffffffffffffffff16610fb36107b9565b73ffffffffffffffffffffffffffffffffffffffff1614611009576040517f08c379a000000000000000000000000000000000000000000000000000000000815260040161100090611d04565b60405180910390fd5b565b5f73ffffffffffffffffffffffffffffffffffffffff168273ffffffffffffffffffffffffffffffffffffffff1603611079576040517f08c379a000000000000000000000000000000000000000000000000000000000815260040161107090611d6c565b60405180910390fd5b6110845f83836113df565b8060025f828254611095919061176d565b92505081905550805f5f8473ffffffffffffffffffffffffffffffffffffffff1673ffffffffffffffffffffffffffffffffffffffff1681526020019081526020015f205f82825401925050819055508173ffffffffffffffffffffffffffffffffffffffff165f73ffffffffffffffffffffffffffffffffffffffff167fddf252ad1be2c89b69c2b068fc378daa952ba7f163c4a11628f55a4df523b3ef83604051611142919061158a565b60405180910390a36111555f83836113e4565b5050565b5f73ffffffffffffffffffffffffffffffffffffffff168273ffffffffffffffffffffffffffffffffffffffff16036111c7576040517f08c379a00000000000000000000000000000000000000000000000000000000081526004016111be90611dfa565b60405180910390fd5b6111d2825f836113df565b5f5f5f8473ffffffffffffffffffffffffffffffffffffffff1673ffffffffffffffffffffffffffffffffffffffff1681526020019081526020015f2054905081811015611255576040517f08c379a000000000000000000000000000000000000000000000000000000000815260040161124c90611e88565b60405180910390fd5b8181035f5f8573ffffffffffffffffffffffffffffffffffffffff1673ffffffffffffffffffffffffffffffffffffffff1681526020019081526020015f20819055508160025f82825403925050819055505f73ffffffffffffffffffffffffffffffffffffffff168373ffffffffffffffffffffffffffffffffffffffff167fddf252ad1be2c89b69c2b068fc378daa952ba7f163c4a11628f55a4df523b3ef84604051611304919061158a565b60405180910390a3611317835f846113e4565b505050565b5f60055f9054906101000a900473ffffffffffffffffffffffffffffffffffffffff1690508160055f6101000a81548173ffffffffffffffffffffffffffffffffffffffff021916908373ffffffffffffffffffffffffffffffffffffffff1602179055508173ffffffffffffffffffffffffffffffffffffffff168173ffffffffffffffffffffffffffffffffffffffff167f8be0079c531659141344cd1fd0a4f28419497f9722a3daafe3b4186f6b6457e060405160405180910390a35050565b505050565b505050565b5f81519050919050565b5f82825260208201905092915050565b8281835e5f83830152505050565b5f601f19601f8301169050919050565b5f61142b826113e9565b61143581856113f3565b9350611445818560208601611403565b61144e81611411565b840191505092915050565b5f6020820190508181035f8301526114718184611421565b905092915050565b5f5ffd5b5f73ffffffffffffffffffffffffffffffffffffffff82169050919050565b5f6114a68261147d565b9050919050565b6114b68161149c565b81146114c0575f5ffd5b50565b5f813590506114d1816114ad565b92915050565b5f819050919050565b6114e9816114d7565b81146114f3575f5ffd5b50565b5f81359050611504816114e0565b92915050565b5f5f604083850312156115205761151f611479565b5b5f61152d858286016114c3565b925050602061153e858286016114f6565b9150509250929050565b5f8115159050919050565b61155c81611548565b82525050565b5f6020820190506115755f830184611553565b92915050565b611584816114d7565b82525050565b5f60208201905061159d5f83018461157b565b92915050565b5f5f5f606084860312156115ba576115b9611479565b5b5f6115c7868287016114c3565b93505060206115d8868287016114c3565b92505060406115e9868287016114f6565b9150509250925092565b5f6020828403121561160857611607611479565b5b5f611615848285016114c3565b91505092915050565b5f60ff82169050919050565b6116338161161e565b82525050565b5f60208201905061164c5f83018461162a565b92915050565b5f6020828403121561166757611666611479565b5b5f611674848285016114f6565b91505092915050565b6116868161149c565b82525050565b5f60208201905061169f5f83018461167d565b92915050565b5f5f604083850312156116bb576116ba611479565b5b5f6116c8858286016114c3565b92505060206116d9858286016114c3565b9150509250929050565b7f4e487b71000000000000000000000000000000000000000000000000000000005f52602260045260245ffd5b5f600282049050600182168061172757607f821691505b60208210810361173a576117396116e3565b5b50919050565b7f4e487b71000000000000000000000000000000000000000000000000000000005f52601160045260245ffd5b5f611777826114d7565b9150611782836114d7565b925082820190508082111561179a57611799611740565b5b92915050565b7f4e6f7420617574686f72697a656420746f206d696e74000000000000000000005f82015250565b5f6117d46016836113f3565b91506117df826117a0565b602082019050919050565b5f6020820190508181035f830152611801816117c8565b9050919050565b7f45786365656473206d617820737570706c7900000000000000000000000000005f82015250565b5f61183c6012836113f3565b915061184782611808565b602082019050919050565b5f6020820190508181035f83015261186981611830565b9050919050565b7f45524332303a2064656372656173656420616c6c6f77616e63652062656c6f775f8201527f207a65726f000000000000000000000000000000000000000000000000000000602082015250565b5f6118ca6025836113f3565b91506118d582611870565b604082019050919050565b5f6020820190508181035f8301526118f7816118be565b9050919050565b7f4f776e61626c653a206e6577206f776e657220697320746865207a65726f20615f8201527f6464726573730000000000000000000000000000000000000000000000000000602082015250565b5f6119586026836113f3565b9150611963826118fe565b604082019050919050565b5f6020820190508181035f8301526119858161194c565b9050919050565b7f45524332303a20617070726f76652066726f6d20746865207a65726f206164645f8201527f7265737300000000000000000000000000000000000000000000000000000000602082015250565b5f6119e66024836113f3565b91506119f18261198c565b604082019050919050565b5f6020820190508181035f830152611a13816119da565b9050919050565b7f45524332303a20617070726f766520746f20746865207a65726f2061646472655f8201527f7373000000000000000000000000000000000000000000000000000000000000602082015250565b5f611a746022836113f3565b9150611a7f82611a1a565b604082019050919050565b5f6020820190508181035f830152611aa181611a68565b9050919050565b7f45524332303a20696e73756666696369656e7420616c6c6f77616e63650000005f82015250565b5f611adc601d836113f3565b9150611ae782611aa8565b602082019050919050565b5f6020820190508181035f830152611b0981611ad0565b9050919050565b7f45524332303a207472616e736665722066726f6d20746865207a65726f2061645f8201527f6472657373000000000000000000000000000000000000000000000000000000602082015250565b5f611b6a6025836113f3565b9150611b7582611b10565b604082019050919050565b5f6020820190508181035f830152611b9781611b5e565b9050919050565b7f45524332303a207472616e7366657220746f20746865207a65726f20616464725f8201527f6573730000000000000000000000000000000000000000000000000000000000602082015250565b5f611bf86023836113f3565b9150611c0382611b9e565b604082019050919050565b5f6020820190508181035f830152611c2581611bec565b9050919050565b7f45524332303a207472616e7366657220616d6f756e74206578636565647320625f8201527f616c616e63650000000000000000000000000000000000000000000000000000602082015250565b5f611c866026836113f3565b9150611c9182611c2c565b604082019050919050565b5f6020820190508181035f830152611cb381611c7a565b9050919050565b7f4f776e61626c653a2063616c6c6572206973206e6f7420746865206f776e65725f82015250565b5f611cee6020836113f3565b9150611cf982611cba565b602082019050919050565b5f6020820190508181035f830152611d1b81611ce2565b9050919050565b7f45524332303a206d696e7420746f20746865207a65726f2061646472657373005f82015250565b5f611d56601f836113f3565b9150611d6182611d22565b602082019050919050565b5f6020820190508181035f830152611d8381611d4a565b9050919050565b7f45524332303a206275726e2066726f6d20746865207a65726f206164647265735f8201527f7300000000000000000000000000000000000000000000000000000000000000602082015250565b5f611de46021836113f3565b9150611def82611d8a565b604082019050919050565b5f6020820190508181035f830152611e1181611dd8565b9050919050565b7f45524332303a206275726e20616d6f756e7420657863656564732062616c616e5f8201527f6365000000000000000000000000000000000000000000000000000000000000602082015250565b5f611e726022836113f3565b9150611e7d82611e18565b604082019050919050565b5f6020820190508181035f830152611e9f81611e66565b905091905056fea264697066735822122024cf480152288e47f5ae92c4f055746479e64a44b05e8759f693fe4af5e90b9b64736f6c634300081e0033","linkReferences":{}},"methodIdentifiers":{"MAX_SUPPLY()":"32cb6b0c","addMinter(address)":"983b2d56","allowance(address,address)":"dd62ed3e","approve(address,uint256)":"095ea7b3","balanceOf(address)":"70a08231","burn(uint256)":"42966c68","burnFrom(address,uint256)":"79cc6790","decimals()":"313ce567","decreaseAllowance(address,uint256)":"a457c2d7","increaseAllowance(address,uint256)":"39509351","mint(address,uint256)":"40c10f19","minters(address)":"f46eccc4","name()":"06fdde03","owner()":"8da5cb5b","removeMinter(address)":"3092afd5","renounceOwnership()":"715018a6","symbol()":"95d89b41","totalSupply()":"18160ddd","transfer(address,uint256)":"a9059cbb","transferFrom(address,address,uint256)":"23b872dd","transferOwnership(address)":"f2fde38b"},"id":4}